{
  "_format": "hh-sol-artifact-1",
  "contractName": "CertificateVerification",
  "sourceName": "contracts/CertificateVerification.sol",
  "abi": [
    {
      "inputs": [],
      "stateMutability": "nonpayable",
      "type": "constructor"
    },
    {
      "anonymous": false,
      "inputs": [
        {
          "indexed": true,
          "internalType": "string",
          "name": "certificateId",
          "type": "string"
        },
        {
          "indexed": false,
          "internalType": "string",
          "name": "studentName",
          "type": "string"
        },
        {
          "indexed": false,
          "internalType": "string",
          "name": "registrationNumber",
          "type": "string"
        },
        {
          "indexed": false,
          "internalType": "string",
          "name": "degree",
          "type": "string"
        },
        {
          "indexed": false,
          "internalType": "uint256",
          "name": "issueDate",
          "type": "uint256"
        }
      ],
      "name": "CertificateIssued",
      "type": "event"
    },
    {
      "anonymous": false,
      "inputs": [
        {
          "indexed": true,
          "internalType": "string",
          "name": "certificateId",
          "type": "string"
        },
        {
          "indexed": false,
          "internalType": "address",
          "name": "revokedBy",
          "type": "address"
        }
      ],
      "name": "CertificateRevoked",
      "type": "event"
    },
    {
      "anonymous": false,
      "inputs": [
        {
          "indexed": true,
          "internalType": "address",
          "name": "institutionAddress",
          "type": "address"
        },
        {
          "indexed": false,
          "internalType": "string",
          "name": "name",
          "type": "string"
        }
      ],
      "name": "InstitutionAuthorized",
      "type": "event"
    },
    {
      "anonymous": false,
      "inputs": [
        {
          "indexed": true,
          "internalType": "address",
          "name": "institutionAddress",
          "type": "address"
        }
      ],
      "name": "InstitutionRevoked",
      "type": "event"
    },
    {
      "inputs": [
        {
          "internalType": "address",
          "name": "_address",
          "type": "address"
        },
        {
          "internalType": "string",
          "name": "_name",
          "type": "string"
        }
      ],
      "name": "authorizeInstitution",
      "outputs": [],
      "stateMutability": "nonpayable",
      "type": "function"
    },
    {
      "inputs": [
        {
          "internalType": "string",
          "name": "_certificateId",
          "type": "string"
        }
      ],
      "name": "certificateIdExists",
      "outputs": [
        {
          "internalType": "bool",
          "name": "",
          "type": "bool"
        }
      ],
      "stateMutability": "view",
      "type": "function"
    },
    {
      "inputs": [
        {
          "internalType": "string",
          "name": "_registrationNumber",
          "type": "string"
        }
      ],
      "name": "getStudentCertificates",
      "outputs": [
        {
          "internalType": "string[]",
          "name": "",
          "type": "string[]"
        }
      ],
      "stateMutability": "view",
      "type": "function"
    },
    {
      "inputs": [
        {
          "internalType": "address",
          "name": "_address",
          "type": "address"
        }
      ],
      "name": "isInstitutionAuthorized",
      "outputs": [
        {
          "internalType": "bool",
          "name": "",
          "type": "bool"
        },
        {
          "internalType": "string",
          "name": "",
          "type": "string"
        }
      ],
      "stateMutability": "view",
      "type": "function"
    },
    {
      "inputs": [
        {
          "internalType": "string",
          "name": "_certificateId",
          "type": "string"
        },
        {
          "internalType": "string",
          "name": "_studentName",
          "type": "string"
        },
        {
          "internalType": "string",
          "name": "_registrationNumber",
          "type": "string"
        },
        {
          "internalType": "string",
          "name": "_degree",
          "type": "string"
        },
        {
          "internalType": "string",
          "name": "_institution",
          "type": "string"
        },
        {
          "internalType": "string",
          "name": "_ipfsHash",
          "type": "string"
        }
      ],
      "name": "issueCertificate",
      "outputs": [],
      "stateMutability": "nonpayable",
      "type": "function"
    },
    {
      "inputs": [],
      "name": "owner",
      "outputs": [
        {
          "internalType": "address",
          "name": "",
          "type": "address"
        }
      ],
      "stateMutability": "view",
      "type": "function"
    },
    {
      "inputs": [
        {
          "internalType": "string",
          "name": "_certificateId",
          "type": "string"
        }
      ],
      "name": "revokeCertificate",
      "outputs": [],
      "stateMutability": "nonpayable",
      "type": "function"
    },
    {
      "inputs": [
        {
          "internalType": "address",
          "name": "_address",
          "type": "address"
        }
      ],
      "name": "revokeInstitution",
      "outputs": [],
      "stateMutability": "nonpayable",
      "type": "function"
    },
    {
      "inputs": [],
      "name": "totalCertificates",
      "outputs": [
        {
          "internalType": "uint256",
          "name": "",
          "type": "uint256"
        }
      ],
      "stateMutability": "view",
      "type": "function"
    },
    {
      "inputs": [
        {
          "internalType": "string",
          "name": "_certificateId",
          "type": "string"
        }
      ],
      "name": "verifyCertificate",
      "outputs": [
        {
          "internalType": "string",
          "name": "certificateId",
          "type": "string"
        },
        {
          "internalType": "string",
          "name": "studentName",
          "type": "string"
        },
        {
          "internalType": "string",
          "name": "registrationNumber",
          "type": "string"
        },
        {
          "internalType": "string",
          "name": "degree",
          "type": "string"
        },
        {
          "internalType": "string",
          "name": "institution",
          "type": "string"
        },
        {
          "internalType": "string",
          "name": "ipfsHash",
          "type": "string"
        },
        {
          "internalType": "uint256",
          "name": "issueDate",
          "type": "uint256"
        },
        {
          "internalType": "bool",
          "name": "isValid",
          "type": "bool"
        },
        {
          "internalType": "address",
          "name": "issuedBy",
          "type": "address"
        },
        {
          "internalType": "bool",
          "name": "verified",
          "type": "bool"
        }
      ],
      "stateMutability": "view",
      "type": "function"
    }
  ],
  "bytecode": "0x60806040523480156200001157600080fd5b50600080546001600160a01b0319163390811782556040805160808101825260168183019081527f436f6e7472616374204f776e6572202f2041646d696e00000000000000000000606083015281526001602080830191909152928452600290925290912081518190620000869082620001b0565b506020918201516001909101805460ff1916911515919091179055604080518281526016928101929092527f436f6e7472616374204f776e6572202f2041646d696e000000000000000000009082015233907fa09ef0c5b609880c9223c311bcad10dca2e49107569bb3caee0288501ccda2cc9060600160405180910390a26200027c565b634e487b7160e01b600052604160045260246000fd5b600181811c908216806200013657607f821691505b6020821081036200015757634e487b7160e01b600052602260045260246000fd5b50919050565b601f821115620001ab57600081815260208120601f850160051c81016020861015620001865750805b601f850160051c820191505b81811015620001a75782815560010162000192565b5050505b505050565b81516001600160401b03811115620001cc57620001cc6200010b565b620001e481620001dd845462000121565b846200015d565b602080601f8311600181146200021c5760008415620002035750858301515b600019600386901b1c1916600185901b178555620001a7565b600085815260208120601f198616915b828110156200024d578886015182559484019460019091019084016200022c565b50858210156200026c5787850151600019600388901b60f8161c191681555b5050505050600190811b01905550565b61174a806200028c6000396000f3fe608060405234801561001057600080fd5b506004361061009e5760003560e01c80638b23d875116100665780638b23d8751461012b5780638da5cb5b1461015457806394973c971461017f578063ade3de2c14610192578063f9e331eb146101b257600080fd5b8063142e1542146100a35780631c67494e146100b8578063596b772f146100cb578063771a7fd8146100e75780638871d9e814610108575b600080fd5b6100b66100b13660046111af565b6101c5565b005b6100b66100c6366004611208565b6103a1565b6100d460045481565b6040519081526020015b60405180910390f35b6100fa6100f5366004611208565b610482565b6040516100de92919061127a565b61011b6101163660046111af565b61055c565b60405190151581526020016100de565b61013e6101393660046111af565b610593565b6040516100de9a99989796959493929190611295565b600054610167906001600160a01b031681565b6040516001600160a01b0390911681526020016100de565b6100b661018d366004611344565b610a2f565b6101a56101a03660046111af565b610eb2565b6040516100de9190611439565b6100b66101c036600461149b565b610fa9565b8060006001826040516101d891906114e9565b90815260405190819003602001902080546101f290611505565b9050116102465760405162461bcd60e51b815260206004820152601a60248201527f436572746966696361746520646f6573206e6f7420657869737400000000000060448201526064015b60405180910390fd5b600060018360405161025891906114e9565b908152604051908190036020019020600054909150336001600160a01b0390911614806102965750600781015461010090046001600160a01b031633145b6102f45760405162461bcd60e51b815260206004820152602960248201527f4e6f7420617574686f72697a656420746f207265766f6b65207468697320636560448201526872746966696361746560b81b606482015260840161023d565b600781015460ff166103485760405162461bcd60e51b815260206004820152601b60248201527f436572746966696361746520616c7265616479207265766f6b65640000000000604482015260640161023d565b60078101805460ff191690556040516103629084906114e9565b604051908190038120338252907f7b87df98e4ff33f07a9fbda6f93a6b69c498e48444877da8c54a83d3a43aee5b9060200160405180910390a2505050565b6000546001600160a01b031633146103cb5760405162461bcd60e51b815260040161023d9061153f565b6001600160a01b03811660009081526002602052604090206001015460ff166104365760405162461bcd60e51b815260206004820152601a60248201527f496e737469747574696f6e206e6f7420617574686f72697a6564000000000000604482015260640161023d565b6001600160a01b038116600081815260026020526040808220600101805460ff19169055517f5f2c961a0db2d72fa01bfae36aaca642457678d9c63adaca86c8cb1b3d1230f49190a250565b6001600160a01b0381166000908152600260205260408082208151808301909252805460609284929091829082906104b990611505565b80601f01602080910402602001604051908101604052809291908181526020018280546104e590611505565b80156105325780601f1061050757610100808354040283529160200191610532565b820191906000526020600020905b81548152906001019060200180831161051557829003601f168201915b50505091835250506001919091015460ff1615156020918201528101519051909590945092505050565b60008060018360405161056f91906114e9565b908152604051908190036020019020805461058990611505565b9050119050919050565b606080606080606080600080600080600060018c6040516105b491906114e9565b9081526020016040518091039020604051806101200160405290816000820180546105de90611505565b80601f016020809104026020016040519081016040528092919081815260200182805461060a90611505565b80156106575780601f1061062c57610100808354040283529160200191610657565b820191906000526020600020905b81548152906001019060200180831161063a57829003601f168201915b5050505050815260200160018201805461067090611505565b80601f016020809104026020016040519081016040528092919081815260200182805461069c90611505565b80156106e95780601f106106be576101008083540402835291602001916106e9565b820191906000526020600020905b8154815290600101906020018083116106cc57829003601f168201915b5050505050815260200160028201805461070290611505565b80601f016020809104026020016040519081016040528092919081815260200182805461072e90611505565b801561077b5780601f106107505761010080835404028352916020019161077b565b820191906000526020600020905b81548152906001019060200180831161075e57829003601f168201915b5050505050815260200160038201805461079490611505565b80601f01602080910402602001604051908101604052809291908181526020018280546107c090611505565b801561080d5780601f106107e25761010080835404028352916020019161080d565b820191906000526020600020905b8154815290600101906020018083116107f057829003601f168201915b5050505050815260200160048201805461082690611505565b80601f016020809104026020016040519081016040528092919081815260200182805461085290611505565b801561089f5780601f106108745761010080835404028352916020019161089f565b820191906000526020600020905b81548152906001019060200180831161088257829003601f168201915b505050505081526020016005820180546108b890611505565b80601f01602080910402602001604051908101604052809291908181526020018280546108e490611505565b80156109315780601f1061090657610100808354040283529160200191610931565b820191906000526020600020905b81548152906001019060200180831161091457829003601f168201915b50505091835250506006820154602082015260079091015460ff81161515604083015261010090046001600160a01b03166060909101528051519091506000036109d957505060408051602080820183526000808352835180830185528181528451808401865282815285518085018752838152865180860188528481528751958601909752838552949e50909c509a50919850919650909450925082915081905080610a22565b806000015181602001518260400151836060015184608001518560a001518660c001518760e001518861010001518960e001519a509a509a509a509a509a509a509a509a509a50505b9193959799509193959799565b3360009081526002602052604090206001015460ff16610aa15760405162461bcd60e51b815260206004820152602760248201527f43616c6c6572206973206e6f7420616e20617574686f72697a656420696e737460448201526634ba3aba34b7b760c91b606482015260840161023d565b6000865111610af25760405162461bcd60e51b815260206004820152601760248201527f4365727469666963617465204944207265717569726564000000000000000000604482015260640161023d565b6000855111610b3b5760405162461bcd60e51b815260206004820152601560248201527414dd1d59195b9d081b985b59481c995c5d5a5c9959605a1b604482015260640161023d565b6000845111610b8c5760405162461bcd60e51b815260206004820152601c60248201527f526567697374726174696f6e206e756d62657220726571756972656400000000604482015260640161023d565b6000835111610bcf5760405162461bcd60e51b815260206004820152600f60248201526e111959dc9959481c995c5d5a5c9959608a1b604482015260640161023d565b6000825111610c175760405162461bcd60e51b8152602060048201526014602482015273125b9cdd1a5d1d5d1a5bdb881c995c5d5a5c995960621b604482015260640161023d565b6000815111610c5d5760405162461bcd60e51b815260206004820152601260248201527112541194c81a185cda081c995c5d5a5c995960721b604482015260640161023d565b600186604051610c6d91906114e9565b9081526040519081900360200190208054610c8790611505565b159050610cd65760405162461bcd60e51b815260206004820152601d60248201527f436572746966696361746520494420616c726561647920657869737473000000604482015260640161023d565b604051806101200160405280878152602001868152602001858152602001848152602001838152602001828152602001428152602001600115158152602001336001600160a01b0316815250600187604051610d3291906114e9565b90815260405190819003602001902081518190610d4f90826115cf565b5060208201516001820190610d6490826115cf565b5060408201516002820190610d7990826115cf565b5060608201516003820190610d8e90826115cf565b5060808201516004820190610da390826115cf565b5060a08201516005820190610db890826115cf565b5060c0820151600682015560e082015160079091018054610100938401516001600160a81b0319909116921515610100600160a81b031916929092176001600160a01b03909216909202179055604051600390610e169086906114e9565b908152604051602091819003820190208054600181018255600091825291902001610e4187826115cf565b5060048054906000610e528361168f565b919050555085604051610e6591906114e9565b60405180910390207f98eb45068e1da1f9cc96add03ccb87a8e8e684d20bda8390a73c006f780ebae186868642604051610ea294939291906116b6565b60405180910390a2505050505050565b6060600382604051610ec491906114e9565b9081526020016040518091039020805480602002602001604051908101604052809291908181526020016000905b82821015610f9e578382906000526020600020018054610f1190611505565b80601f0160208091040260200160405190810160405280929190818152602001828054610f3d90611505565b8015610f8a5780601f10610f5f57610100808354040283529160200191610f8a565b820191906000526020600020905b815481529060010190602001808311610f6d57829003601f168201915b505050505081526020019060010190610ef2565b505050509050919050565b6000546001600160a01b03163314610fd35760405162461bcd60e51b815260040161023d9061153f565b6001600160a01b03821661101b5760405162461bcd60e51b815260206004820152600f60248201526e496e76616c6964206164647265737360881b604482015260640161023d565b600081511161106c5760405162461bcd60e51b815260206004820152601960248201527f496e737469747574696f6e206e616d6520726571756972656400000000000000604482015260640161023d565b60408051808201825282815260016020808301919091526001600160a01b0385166000908152600290915291909120815181906110a990826115cf565b50602091909101516001909101805460ff19169115159190911790556040516001600160a01b038316907fa09ef0c5b609880c9223c311bcad10dca2e49107569bb3caee0288501ccda2cc90611100908490611701565b60405180910390a25050565b634e487b7160e01b600052604160045260246000fd5b600082601f83011261113357600080fd5b813567ffffffffffffffff8082111561114e5761114e61110c565b604051601f8301601f19908116603f011681019082821181831017156111765761117661110c565b8160405283815286602085880101111561118f57600080fd5b836020870160208301376000602085830101528094505050505092915050565b6000602082840312156111c157600080fd5b813567ffffffffffffffff8111156111d857600080fd5b6111e484828501611122565b949350505050565b80356001600160a01b038116811461120357600080fd5b919050565b60006020828403121561121a57600080fd5b611223826111ec565b9392505050565b60005b8381101561124557818101518382015260200161122d565b50506000910152565b6000815180845261126681602086016020860161122a565b601f01601f19169290920160200192915050565b82151581526040602082015260006111e4604083018461124e565b60006101408083526112a98184018e61124e565b905082810360208401526112bd818d61124e565b905082810360408401526112d1818c61124e565b905082810360608401526112e5818b61124e565b905082810360808401526112f9818a61124e565b905082810360a084015261130d818961124e565b60c0840197909752505092151560e08401526001600160a01b03919091166101008301521515610120909101529695505050505050565b60008060008060008060c0878903121561135d57600080fd5b863567ffffffffffffffff8082111561137557600080fd5b6113818a838b01611122565b9750602089013591508082111561139757600080fd5b6113a38a838b01611122565b965060408901359150808211156113b957600080fd5b6113c58a838b01611122565b955060608901359150808211156113db57600080fd5b6113e78a838b01611122565b945060808901359150808211156113fd57600080fd5b6114098a838b01611122565b935060a089013591508082111561141f57600080fd5b5061142c89828a01611122565b9150509295509295509295565b6000602080830181845280855180835260408601915060408160051b870101925083870160005b8281101561148e57603f1988860301845261147c85835161124e565b94509285019290850190600101611460565b5092979650505050505050565b600080604083850312156114ae57600080fd5b6114b7836111ec565b9150602083013567ffffffffffffffff8111156114d357600080fd5b6114df85828601611122565b9150509250929050565b600082516114fb81846020870161122a565b9190910192915050565b600181811c9082168061151957607f821691505b60208210810361153957634e487b7160e01b600052602260045260246000fd5b50919050565b60208082526021908201527f4f6e6c7920636f6e7472616374206f776e65722063616e2063616c6c207468696040820152607360f81b606082015260800190565b601f8211156115ca57600081815260208120601f850160051c810160208610156115a75750805b601f850160051c820191505b818110156115c6578281556001016115b3565b5050505b505050565b815167ffffffffffffffff8111156115e9576115e961110c565b6115fd816115f78454611505565b84611580565b602080601f831160018114611632576000841561161a5750858301515b600019600386901b1c1916600185901b1785556115c6565b600085815260208120601f198616915b8281101561166157888601518255948401946001909101908401611642565b508582101561167f5787850151600019600388901b60f8161c191681555b5050505050600190811b01905550565b6000600182016116af57634e487b7160e01b600052601160045260246000fd5b5060010190565b6080815260006116c9608083018761124e565b82810360208401526116db818761124e565b905082810360408401526116ef818661124e565b91505082606083015295945050505050565b602081526000611223602083018461124e56fea264697066735822122023099c104e205b1ff13b322d2a0ba2592aa93353499b4391b7409339c89f4fc464736f6c63430008140033",
  "linkReferences": {},
  "deployedLinkReferences": {}
}