{"contracts/CertificateVerification.sol":{"CertificateVerification":{"abi":[{"inputs":[],"stateMutability":"nonpayable","type":"constructor"},{"anonymous":false,"inputs":[{"indexed":true,"internalType":"string","name":"certificateId","type":"string"},{"indexed":false,"internalType":"string","name":"studentName","type":"string"},{"indexed":false,"internalType":"string","name":"registrationNumber","type":"string"},{"indexed":false,"internalType":"string","name":"degree","type":"string"},{"indexed":false,"internalType":"uint256","name":"issueDate","type":"uint256"}],"name":"CertificateIssued","type":"event"},{"anonymous":false,"inputs":[{"indexed":true,"internalType":"string","name":"certificateId","type":"string"},{"indexed":false,"internalType":"address","name":"revokedBy","type":"address"}],"name":"CertificateRevoked","type":"event"},{"anonymous":false,"inputs":[{"indexed":true,"internalType":"address","name":"institutionAddress","type":"address"},{"indexed":false,"internalType":"string","name":"name","type":"string"}],"name":"InstitutionAuthorized","type":"event"},{"anonymous":false,"inputs":[{"indexed":true,"internalType":"address","name":"institutionAddress","type":"address"}],"name":"InstitutionRevoked","type":"event"},{"inputs":[{"internalType":"address","name":"_address","type":"address"},{"internalType":"string","name":"_name","type":"string"}],"name":"authorizeInstitution","outputs":[],"stateMutability":"nonpayable","type":"function"},{"inputs":[{"internalType":"string","name":"_certificateId","type":"string"}],"name":"certificateIdExists","outputs":[{"internalType":"bool","name":"","type":"bool"}],"stateMutability":"view","type":"function"},{"inputs":[{"internalType":"string","name":"_registrationNumber","type":"string"}],"name":"getStudentCertificates","outputs":[{"internalType":"string[]","name":"","type":"string[]"}],"stateMutability":"view","type":"function"},{"inputs":[{"internalType":"address","name":"_address","type":"address"}],"name":"isInstitutionAuthorized","outputs":[{"internalType":"bool","name":"","type":"bool"},{"internalType":"string","name":"","type":"string"}],"stateMutability":"view","type":"function"},{"inputs":[{"internalType":"string","name":"_certificateId","type":"string"},{"internalType":"string","name":"_studentName","type":"string"},{"internalType":"string","name":"_registrationNumber","type":"string"},{"internalType":"string","name":"_degree","type":"string"},{"internalType":"string","name":"_institution","type":"string"},{"internalType":"string","name":"_ipfsHash","type":"string"}],"name":"issueCertificate","outputs":[],"stateMutability":"nonpayable","type":"function"},{"inputs":[],"name":"owner","outputs":[{"internalType":"address","name":"","type":"address"}],"stateMutability":"view","type":"function"},{"inputs":[{"internalType":"string","name":"_certificateId","type":"string"}],"name":"revokeCertificate","outputs":[],"stateMutability":"nonpayable","type":"function"},{"inputs":[{"internalType":"address","name":"_address","type":"address"}],"name":"revokeInstitution","outputs":[],"stateMutability":"nonpayable","type":"function"},{"inputs":[],"name":"totalCertificates","outputs":[{"internalType":"uint256","name":"","type":"uint256"}],"stateMutability":"view","type":"function"},{"inputs":[{"internalType":"string","name":"_certificateId","type":"string"}],"name":"verifyCertificate","outputs":[{"internalType":"string","name":"certificateId","type":"string"},{"internalType":"string","name":"studentName","type":"string"},{"internalType":"string","name":"registrationNumber","type":"string"},{"internalType":"string","name":"degree","type":"string"},{"internalType":"string","name":"institution","type":"string"},{"internalType":"string","name":"ipfsHash","type":"string"},{"internalType":"uint256","name":"issueDate","type":"uint256"},{"internalType":"bool","name":"isValid","type":"bool"},{"internalType":"address","name":"issuedBy","type":"address"},{"internalType":"bool","name":"verified","type":"bool"}],"stateMutability":"view","type":"function"}],"evm":{"bytecode":{"linkReferences":{},"object":"60806040523480156200001157600080fd5b50600080546001600160a01b0319163390811782556040805160808101825260168183019081527f436f6e7472616374204f776e6572202f2041646d696e00000000000000000000606083015281526001602080830191909152928452600290925290912081518190620000869082620001b0565b506020918201516001909101805460ff1916911515919091179055604080518281526016928101929092527f436f6e7472616374204f776e6572202f2041646d696e000000000000000000009082015233907fa09ef0c5b609880c9223c311bcad10dca2e49107569bb3caee0288501ccda2cc9060600160405180910390a26200027c565b634e487b7160e01b600052604160045260246000fd5b600181811c908216806200013657607f821691505b6020821081036200015757634e487b7160e01b600052602260045260246000fd5b50919050565b601f821115620001ab57600081815260208120601f850160051c81016020861015620001865750805b601f850160051c820191505b81811015620001a75782815560010162000192565b5050505b505050565b81516001600160401b03811115620001cc57620001cc6200010b565b620001e481620001dd845462000121565b846200015d565b602080601f8311600181146200021c5760008415620002035750858301515b600019600386901b1c1916600185901b178555620001a7565b600085815260208120601f198616915b828110156200024d578886015182559484019460019091019084016200022c565b50858210156200026c5787850151600019600388901b60f8161c191681555b5050505050600190811b01905550565b61174a806200028c6000396000f3fe608060405234801561001057600080fd5b506004361061009e5760003560e01c80638b23d875116100665780638b23d8751461012b5780638da5cb5b1461015457806394973c971461017f578063ade3de2c14610192578063f9e331eb146101b257600080fd5b8063142e1542146100a35780631c67494e146100b8578063596b772f146100cb578063771a7fd8146100e75780638871d9e814610108575b600080fd5b6100b66100b13660046111af565b6101c5565b005b6100b66100c6366004611208565b6103a1565b6100d460045481565b6040519081526020015b60405180910390f35b6100fa6100f5366004611208565b610482565b6040516100de92919061127a565b61011b6101163660046111af565b61055c565b60405190151581526020016100de565b61013e6101393660046111af565b610593565b6040516100de9a99989796959493929190611295565b600054610167906001600160a01b031681565b6040516001600160a01b0390911681526020016100de565b6100b661018d366004611344565b610a2f565b6101a56101a03660046111af565b610eb2565b6040516100de9190611439565b6100b66101c036600461149b565b610fa9565b8060006001826040516101d891906114e9565b90815260405190819003602001902080546101f290611505565b9050116102465760405162461bcd60e51b815260206004820152601a60248201527f436572746966696361746520646f6573206e6f7420657869737400000000000060448201526064015b60405180910390fd5b600060018360405161025891906114e9565b908152604051908190036020019020600054909150336001600160a01b0390911614806102965750600781015461010090046001600160a01b031633145b6102f45760405162461bcd60e51b815260206004820152602960248201527f4e6f7420617574686f72697a656420746f207265766f6b65207468697320636560448201526872746966696361746560b81b606482015260840161023d565b600781015460ff166103485760405162461bcd60e51b815260206004820152601b60248201527f436572746966696361746520616c7265616479207265766f6b65640000000000604482015260640161023d565b60078101805460ff191690556040516103629084906114e9565b604051908190038120338252907f7b87df98e4ff33f07a9fbda6f93a6b69c498e48444877da8c54a83d3a43aee5b9060200160405180910390a2505050565b6000546001600160a01b031633146103cb5760405162461bcd60e51b815260040161023d9061153f565b6001600160a01b03811660009081526002602052604090206001015460ff166104365760405162461bcd60e51b815260206004820152601a60248201527f496e737469747574696f6e206e6f7420617574686f72697a6564000000000000604482015260640161023d565b6001600160a01b038116600081815260026020526040808220600101805460ff19169055517f5f2c961a0db2d72fa01bfae36aaca642457678d9c63adaca86c8cb1b3d1230f49190a250565b6001600160a01b0381166000908152600260205260408082208151808301909252805460609284929091829082906104b990611505565b80601f01602080910402602001604051908101604052809291908181526020018280546104e590611505565b80156105325780601f1061050757610100808354040283529160200191610532565b820191906000526020600020905b81548152906001019060200180831161051557829003601f168201915b50505091835250506001919091015460ff1615156020918201528101519051909590945092505050565b60008060018360405161056f91906114e9565b908152604051908190036020019020805461058990611505565b9050119050919050565b606080606080606080600080600080600060018c6040516105b491906114e9565b9081526020016040518091039020604051806101200160405290816000820180546105de90611505565b80601f016020809104026020016040519081016040528092919081815260200182805461060a90611505565b80156106575780601f1061062c57610100808354040283529160200191610657565b820191906000526020600020905b81548152906001019060200180831161063a57829003601f168201915b5050505050815260200160018201805461067090611505565b80601f016020809104026020016040519081016040528092919081815260200182805461069c90611505565b80156106e95780601f106106be576101008083540402835291602001916106e9565b820191906000526020600020905b8154815290600101906020018083116106cc57829003601f168201915b5050505050815260200160028201805461070290611505565b80601f016020809104026020016040519081016040528092919081815260200182805461072e90611505565b801561077b5780601f106107505761010080835404028352916020019161077b565b820191906000526020600020905b81548152906001019060200180831161075e57829003601f168201915b5050505050815260200160038201805461079490611505565b80601f01602080910402602001604051908101604052809291908181526020018280546107c090611505565b801561080d5780601f106107e25761010080835404028352916020019161080d565b820191906000526020600020905b8154815290600101906020018083116107f057829003601f168201915b5050505050815260200160048201805461082690611505565b80601f016020809104026020016040519081016040528092919081815260200182805461085290611505565b801561089f5780601f106108745761010080835404028352916020019161089f565b820191906000526020600020905b81548152906001019060200180831161088257829003601f168201915b505050505081526020016005820180546108b890611505565b80601f01602080910402602001604051908101604052809291908181526020018280546108e490611505565b80156109315780601f1061090657610100808354040283529160200191610931565b820191906000526020600020905b81548152906001019060200180831161091457829003601f168201915b50505091835250506006820154602082015260079091015460ff81161515604083015261010090046001600160a01b03166060909101528051519091506000036109d957505060408051602080820183526000808352835180830185528181528451808401865282815285518085018752838152865180860188528481528751958601909752838552949e50909c509a50919850919650909450925082915081905080610a22565b806000015181602001518260400151836060015184608001518560a001518660c001518760e001518861010001518960e001519a509a509a509a509a509a509a509a509a509a50505b9193959799509193959799565b3360009081526002602052604090206001015460ff16610aa15760405162461bcd60e51b815260206004820152602760248201527f43616c6c6572206973206e6f7420616e20617574686f72697a656420696e737460448201526634ba3aba34b7b760c91b606482015260840161023d565b6000865111610af25760405162461bcd60e51b815260206004820152601760248201527f4365727469666963617465204944207265717569726564000000000000000000604482015260640161023d565b6000855111610b3b5760405162461bcd60e51b815260206004820152601560248201527414dd1d59195b9d081b985b59481c995c5d5a5c9959605a1b604482015260640161023d565b6000845111610b8c5760405162461bcd60e51b815260206004820152601c60248201527f526567697374726174696f6e206e756d62657220726571756972656400000000604482015260640161023d565b6000835111610bcf5760405162461bcd60e51b815260206004820152600f60248201526e111959dc9959481c995c5d5a5c9959608a1b604482015260640161023d565b6000825111610c175760405162461bcd60e51b8152602060048201526014602482015273125b9cdd1a5d1d5d1a5bdb881c995c5d5a5c995960621b604482015260640161023d565b6000815111610c5d5760405162461bcd60e51b815260206004820152601260248201527112541194c81a185cda081c995c5d5a5c995960721b604482015260640161023d565b600186604051610c6d91906114e9565b9081526040519081900360200190208054610c8790611505565b159050610cd65760405162461bcd60e51b815260206004820152601d60248201527f436572746966696361746520494420616c726561647920657869737473000000604482015260640161023d565b604051806101200160405280878152602001868152602001858152602001848152602001838152602001828152602001428152602001600115158152602001336001600160a01b0316815250600187604051610d3291906114e9565b90815260405190819003602001902081518190610d4f90826115cf565b5060208201516001820190610d6490826115cf565b5060408201516002820190610d7990826115cf565b5060608201516003820190610d8e90826115cf565b5060808201516004820190610da390826115cf565b5060a08201516005820190610db890826115cf565b5060c0820151600682015560e082015160079091018054610100938401516001600160a81b0319909116921515610100600160a81b031916929092176001600160a01b03909216909202179055604051600390610e169086906114e9565b908152604051602091819003820190208054600181018255600091825291902001610e4187826115cf565b5060048054906000610e528361168f565b919050555085604051610e6591906114e9565b60405180910390207f98eb45068e1da1f9cc96add03ccb87a8e8e684d20bda8390a73c006f780ebae186868642604051610ea294939291906116b6565b60405180910390a2505050505050565b6060600382604051610ec491906114e9565b9081526020016040518091039020805480602002602001604051908101604052809291908181526020016000905b82821015610f9e578382906000526020600020018054610f1190611505565b80601f0160208091040260200160405190810160405280929190818152602001828054610f3d90611505565b8015610f8a5780601f10610f5f57610100808354040283529160200191610f8a565b820191906000526020600020905b815481529060010190602001808311610f6d57829003601f168201915b505050505081526020019060010190610ef2565b505050509050919050565b6000546001600160a01b03163314610fd35760405162461bcd60e51b815260040161023d9061153f565b6001600160a01b03821661101b5760405162461bcd60e51b815260206004820152600f60248201526e496e76616c6964206164647265737360881b604482015260640161023d565b600081511161106c5760405162461bcd60e51b815260206004820152601960248201527f496e737469747574696f6e206e616d6520726571756972656400000000000000604482015260640161023d565b60408051808201825282815260016020808301919091526001600160a01b0385166000908152600290915291909120815181906110a990826115cf565b50602091909101516001909101805460ff19169115159190911790556040516001600160a01b038316907fa09ef0c5b609880c9223c311bcad10dca2e49107569bb3caee0288501ccda2cc90611100908490611701565b60405180910390a25050565b634e487b7160e01b600052604160045260246000fd5b600082601f83011261113357600080fd5b813567ffffffffffffffff8082111561114e5761114e61110c565b604051601f8301601f19908116603f011681019082821181831017156111765761117661110c565b8160405283815286602085880101111561118f57600080fd5b836020870160208301376000602085830101528094505050505092915050565b6000602082840312156111c157600080fd5b813567ffffffffffffffff8111156111d857600080fd5b6111e484828501611122565b949350505050565b80356001600160a01b038116811461120357600080fd5b919050565b60006020828403121561121a57600080fd5b611223826111ec565b9392505050565b60005b8381101561124557818101518382015260200161122d565b50506000910152565b6000815180845261126681602086016020860161122a565b601f01601f19169290920160200192915050565b82151581526040602082015260006111e4604083018461124e565b60006101408083526112a98184018e61124e565b905082810360208401526112bd818d61124e565b905082810360408401526112d1818c61124e565b905082810360608401526112e5818b61124e565b905082810360808401526112f9818a61124e565b905082810360a084015261130d818961124e565b60c0840197909752505092151560e08401526001600160a01b03919091166101008301521515610120909101529695505050505050565b60008060008060008060c0878903121561135d57600080fd5b863567ffffffffffffffff8082111561137557600080fd5b6113818a838b01611122565b9750602089013591508082111561139757600080fd5b6113a38a838b01611122565b965060408901359150808211156113b957600080fd5b6113c58a838b01611122565b955060608901359150808211156113db57600080fd5b6113e78a838b01611122565b945060808901359150808211156113fd57600080fd5b6114098a838b01611122565b935060a089013591508082111561141f57600080fd5b5061142c89828a01611122565b9150509295509295509295565b6000602080830181845280855180835260408601915060408160051b870101925083870160005b8281101561148e57603f1988860301845261147c85835161124e565b94509285019290850190600101611460565b5092979650505050505050565b600080604083850312156114ae57600080fd5b6114b7836111ec565b9150602083013567ffffffffffffffff8111156114d357600080fd5b6114df85828601611122565b9150509250929050565b600082516114fb81846020870161122a565b9190910192915050565b600181811c9082168061151957607f821691505b60208210810361153957634e487b7160e01b600052602260045260246000fd5b50919050565b60208082526021908201527f4f6e6c7920636f6e7472616374206f776e65722063616e2063616c6c207468696040820152607360f81b606082015260800190565b601f8211156115ca57600081815260208120601f850160051c810160208610156115a75750805b601f850160051c820191505b818110156115c6578281556001016115b3565b5050505b505050565b815167ffffffffffffffff8111156115e9576115e961110c565b6115fd816115f78454611505565b84611580565b602080601f831160018114611632576000841561161a5750858301515b600019600386901b1c1916600185901b1785556115c6565b600085815260208120601f198616915b8281101561166157888601518255948401946001909101908401611642565b508582101561167f5787850151600019600388901b60f8161c191681555b5050505050600190811b01905550565b6000600182016116af57634e487b7160e01b600052601160045260246000fd5b5060010190565b6080815260006116c9608083018761124e565b82810360208401526116db818761124e565b905082810360408401526116ef818661124e565b91505082606083015295945050505050565b602081526000611223602083018461124e56fea264697066735822122023099c104e205b1ff13b322d2a0ba2592aa93353499b4391b7409339c89f4fc464736f6c63430008140033","opcodes":"PUSH1 0x80 PUSH1 0x40 MSTORE CALLVALUE DUP1 ISZERO PUSH3 0x11 JUMPI PUSH1 0x0 DUP1 REVERT JUMPDEST POP PUSH1 0x0 DUP1 SLOAD PUSH1 0x1 PUSH1 0x1 PUSH1 0xA0 SHL SUB NOT AND CALLER SWAP1 DUP2 OR DUP3 SSTORE PUSH1 0x40 DUP1 MLOAD PUSH1 0x80 DUP2 ADD DUP3 MSTORE PUSH1 0x16 DUP2 DUP4 ADD SWAP1 DUP2 MSTORE PUSH32 0x436F6E7472616374204F776E6572202F2041646D696E00000000000000000000 PUSH1 0x60 DUP4 ADD MSTORE DUP2 MSTORE PUSH1 0x1 PUSH1 0x20 DUP1 DUP4 ADD SWAP2 SWAP1 SWAP2 MSTORE SWAP3 DUP5 MSTORE PUSH1 0x2 SWAP1 SWAP3 MSTORE SWAP1 SWAP2 KECCAK256 DUP2 MLOAD DUP2 SWAP1 PUSH3 0x86 SWAP1 DUP3 PUSH3 0x1B0 JUMP JUMPDEST POP PUSH1 0x20 SWAP2 DUP3 ADD MLOAD PUSH1 0x1 SWAP1 SWAP2 ADD DUP1 SLOAD PUSH1 0xFF NOT AND SWAP2 ISZERO ISZERO SWAP2 SWAP1 SWAP2 OR SWAP1 SSTORE PUSH1 0x40 DUP1 MLOAD DUP3 DUP2 MSTORE PUSH1 0x16 SWAP3 DUP2 ADD SWAP3 SWAP1 SWAP3 MSTORE PUSH32 0x436F6E7472616374204F776E6572202F2041646D696E00000000000000000000 SWAP1 DUP3 ADD MSTORE CALLER SWAP1 PUSH32 0xA09EF0C5B609880C9223C311BCAD10DCA2E49107569BB3CAEE0288501CCDA2CC SWAP1 PUSH1 0x60 ADD PUSH1 0x40 MLOAD DUP1 SWAP2 SUB SWAP1 LOG2 PUSH3 0x27C JUMP JUMPDEST PUSH4 0x4E487B71 PUSH1 0xE0 SHL PUSH1 0x0 MSTORE PUSH1 0x41 PUSH1 0x4 MSTORE PUSH1 0x24 PUSH1 0x0 REVERT JUMPDEST PUSH1 0x1 DUP2 DUP2 SHR SWAP1 DUP3 AND DUP1 PUSH3 0x136 JUMPI PUSH1 0x7F DUP3 AND SWAP2 POP JUMPDEST PUSH1 0x20 DUP3 LT DUP2 SUB PUSH3 0x157 JUMPI PUSH4 0x4E487B71 PUSH1 0xE0 SHL PUSH1 0x0 MSTORE PUSH1 0x22 PUSH1 0x4 MSTORE PUSH1 0x24 PUSH1 0x0 REVERT JUMPDEST POP SWAP2 SWAP1 POP JUMP JUMPDEST PUSH1 0x1F DUP3 GT ISZERO PUSH3 0x1AB JUMPI PUSH1 0x0 DUP2 DUP2 MSTORE PUSH1 0x20 DUP2 KECCAK256 PUSH1 0x1F DUP6 ADD PUSH1 0x5 SHR DUP2 ADD PUSH1 0x20 DUP7 LT ISZERO PUSH3 0x186 JUMPI POP DUP1 JUMPDEST PUSH1 0x1F DUP6 ADD PUSH1 0x5 SHR DUP3 ADD SWAP2 POP JUMPDEST DUP2 DUP2 LT ISZERO PUSH3 0x1A7 JUMPI DUP3 DUP2 SSTORE PUSH1 0x1 ADD PUSH3 0x192 JUMP JUMPDEST POP POP POP JUMPDEST POP POP POP JUMP JUMPDEST DUP2 MLOAD PUSH1 0x1 PUSH1 0x1 PUSH1 0x40 SHL SUB DUP2 GT ISZERO PUSH3 0x1CC JUMPI PUSH3 0x1CC PUSH3 0x10B JUMP JUMPDEST PUSH3 0x1E4 DUP2 PUSH3 0x1DD DUP5 SLOAD PUSH3 0x121 JUMP JUMPDEST DUP5 PUSH3 0x15D JUMP JUMPDEST PUSH1 0x20 DUP1 PUSH1 0x1F DUP4 GT PUSH1 0x1 DUP2 EQ PUSH3 0x21C JUMPI PUSH1 0x0 DUP5 ISZERO PUSH3 0x203 JUMPI POP DUP6 DUP4 ADD MLOAD JUMPDEST PUSH1 0x0 NOT PUSH1 0x3 DUP7 SWAP1 SHL SHR NOT AND PUSH1 0x1 DUP6 SWAP1 SHL OR DUP6 SSTORE PUSH3 0x1A7 JUMP JUMPDEST PUSH1 0x0 DUP6 DUP2 MSTORE PUSH1 0x20 DUP2 KECCAK256 PUSH1 0x1F NOT DUP7 AND SWAP2 JUMPDEST DUP3 DUP2 LT ISZERO PUSH3 0x24D JUMPI DUP9 DUP7 ADD MLOAD DUP3 SSTORE SWAP5 DUP5 ADD SWAP5 PUSH1 0x1 SWAP1 SWAP2 ADD SWAP1 DUP5 ADD PUSH3 0x22C JUMP JUMPDEST POP DUP6 DUP3 LT ISZERO PUSH3 0x26C JUMPI DUP8 DUP6 ADD MLOAD PUSH1 0x0 NOT PUSH1 0x3 DUP9 SWAP1 SHL PUSH1 0xF8 AND SHR NOT AND DUP2 SSTORE JUMPDEST POP POP POP POP POP PUSH1 0x1 SWAP1 DUP2 SHL ADD SWAP1 SSTORE POP JUMP JUMPDEST PUSH2 0x174A DUP1 PUSH3 0x28C PUSH1 0x0 CODECOPY PUSH1 0x0 RETURN INVALID PUSH1 0x80 PUSH1 0x40 MSTORE CALLVALUE DUP1 ISZERO PUSH2 0x10 JUMPI PUSH1 0x0 DUP1 REVERT JUMPDEST POP PUSH1 0x4 CALLDATASIZE LT PUSH2 0x9E JUMPI PUSH1 0x0 CALLDATALOAD PUSH1 0xE0 SHR DUP1 PUSH4 0x8B23D875 GT PUSH2 0x66 JUMPI DUP1 PUSH4 0x8B23D875 EQ PUSH2 0x12B JUMPI DUP1 PUSH4 0x8DA5CB5B EQ PUSH2 0x154 JUMPI DUP1 PUSH4 0x94973C97 EQ PUSH2 0x17F JUMPI DUP1 PUSH4 0xADE3DE2C EQ PUSH2 0x192 JUMPI DUP1 PUSH4 0xF9E331EB EQ PUSH2 0x1B2 JUMPI PUSH1 0x0 DUP1 REVERT JUMPDEST DUP1 PUSH4 0x142E1542 EQ PUSH2 0xA3 JUMPI DUP1 PUSH4 0x1C67494E EQ PUSH2 0xB8 JUMPI DUP1 PUSH4 0x596B772F EQ PUSH2 0xCB JUMPI DUP1 PUSH4 0x771A7FD8 EQ PUSH2 0xE7 JUMPI DUP1 PUSH4 0x8871D9E8 EQ PUSH2 0x108 JUMPI JUMPDEST PUSH1 0x0 DUP1 REVERT JUMPDEST PUSH2 0xB6 PUSH2 0xB1 CALLDATASIZE PUSH1 0x4 PUSH2 0x11AF JUMP JUMPDEST PUSH2 0x1C5 JUMP JUMPDEST STOP JUMPDEST PUSH2 0xB6 PUSH2 0xC6 CALLDATASIZE PUSH1 0x4 PUSH2 0x1208 JUMP JUMPDEST PUSH2 0x3A1 JUMP JUMPDEST PUSH2 0xD4 PUSH1 0x4 SLOAD DUP2 JUMP JUMPDEST PUSH1 0x40 MLOAD SWAP1 DUP2 MSTORE PUSH1 0x20 ADD JUMPDEST PUSH1 0x40 MLOAD DUP1 SWAP2 SUB SWAP1 RETURN JUMPDEST PUSH2 0xFA PUSH2 0xF5 CALLDATASIZE PUSH1 0x4 PUSH2 0x1208 JUMP JUMPDEST PUSH2 0x482 JUMP JUMPDEST PUSH1 0x40 MLOAD PUSH2 0xDE SWAP3 SWAP2 SWAP1 PUSH2 0x127A JUMP JUMPDEST PUSH2 0x11B PUSH2 0x116 CALLDATASIZE PUSH1 0x4 PUSH2 0x11AF JUMP JUMPDEST PUSH2 0x55C JUMP JUMPDEST PUSH1 0x40 MLOAD SWAP1 ISZERO ISZERO DUP2 MSTORE PUSH1 0x20 ADD PUSH2 0xDE JUMP JUMPDEST PUSH2 0x13E PUSH2 0x139 CALLDATASIZE PUSH1 0x4 PUSH2 0x11AF JUMP JUMPDEST PUSH2 0x593 JUMP JUMPDEST PUSH1 0x40 MLOAD PUSH2 0xDE SWAP11 SWAP10 SWAP9 SWAP8 SWAP7 SWAP6 SWAP5 SWAP4 SWAP3 SWAP2 SWAP1 PUSH2 0x1295 JUMP JUMPDEST PUSH1 0x0 SLOAD PUSH2 0x167 SWAP1 PUSH1 0x1 PUSH1 0x1 PUSH1 0xA0 SHL SUB AND DUP2 JUMP JUMPDEST PUSH1 0x40 MLOAD PUSH1 0x1 PUSH1 0x1 PUSH1 0xA0 SHL SUB SWAP1 SWAP2 AND DUP2 MSTORE PUSH1 0x20 ADD PUSH2 0xDE JUMP JUMPDEST PUSH2 0xB6 PUSH2 0x18D CALLDATASIZE PUSH1 0x4 PUSH2 0x1344 JUMP JUMPDEST PUSH2 0xA2F JUMP JUMPDEST PUSH2 0x1A5 PUSH2 0x1A0 CALLDATASIZE PUSH1 0x4 PUSH2 0x11AF JUMP JUMPDEST PUSH2 0xEB2 JUMP JUMPDEST PUSH1 0x40 MLOAD PUSH2 0xDE SWAP2 SWAP1 PUSH2 0x1439 JUMP JUMPDEST PUSH2 0xB6 PUSH2 0x1C0 CALLDATASIZE PUSH1 0x4 PUSH2 0x149B JUMP JUMPDEST PUSH2 0xFA9 JUMP JUMPDEST DUP1 PUSH1 0x0 PUSH1 0x1 DUP3 PUSH1 0x40 MLOAD PUSH2 0x1D8 SWAP2 SWAP1 PUSH2 0x14E9 JUMP JUMPDEST SWAP1 DUP2 MSTORE PUSH1 0x40 MLOAD SWAP1 DUP2 SWAP1 SUB PUSH1 0x20 ADD SWAP1 KECCAK256 DUP1 SLOAD PUSH2 0x1F2 SWAP1 PUSH2 0x1505 JUMP JUMPDEST SWAP1 POP GT PUSH2 0x246 JUMPI PUSH1 0x40 MLOAD PUSH3 0x461BCD PUSH1 0xE5 SHL DUP2 MSTORE PUSH1 0x20 PUSH1 0x4 DUP3 ADD MSTORE PUSH1 0x1A PUSH1 0x24 DUP3 ADD MSTORE PUSH32 0x436572746966696361746520646F6573206E6F74206578697374000000000000 PUSH1 0x44 DUP3 ADD MSTORE PUSH1 0x64 ADD JUMPDEST PUSH1 0x40 MLOAD DUP1 SWAP2 SUB SWAP1 REVERT JUMPDEST PUSH1 0x0 PUSH1 0x1 DUP4 PUSH1 0x40 MLOAD PUSH2 0x258 SWAP2 SWAP1 PUSH2 0x14E9 JUMP JUMPDEST SWAP1 DUP2 MSTORE PUSH1 0x40 MLOAD SWAP1 DUP2 SWAP1 SUB PUSH1 0x20 ADD SWAP1 KECCAK256 PUSH1 0x0 SLOAD SWAP1 SWAP2 POP CALLER PUSH1 0x1 PUSH1 0x1 PUSH1 0xA0 SHL SUB SWAP1 SWAP2 AND EQ DUP1 PUSH2 0x296 JUMPI POP PUSH1 0x7 DUP2 ADD SLOAD PUSH2 0x100 SWAP1 DIV PUSH1 0x1 PUSH1 0x1 PUSH1 0xA0 SHL SUB AND CALLER EQ JUMPDEST PUSH2 0x2F4 JUMPI PUSH1 0x40 MLOAD PUSH3 0x461BCD PUSH1 0xE5 SHL DUP2 MSTORE PUSH1 0x20 PUSH1 0x4 DUP3 ADD MSTORE PUSH1 0x29 PUSH1 0x24 DUP3 ADD MSTORE PUSH32 0x4E6F7420617574686F72697A656420746F207265766F6B652074686973206365 PUSH1 0x44 DUP3 ADD MSTORE PUSH9 0x727469666963617465 PUSH1 0xB8 SHL PUSH1 0x64 DUP3 ADD MSTORE PUSH1 0x84 ADD PUSH2 0x23D JUMP JUMPDEST PUSH1 0x7 DUP2 ADD SLOAD PUSH1 0xFF AND PUSH2 0x348 JUMPI PUSH1 0x40 MLOAD PUSH3 0x461BCD PUSH1 0xE5 SHL DUP2 MSTORE PUSH1 0x20 PUSH1 0x4 DUP3 ADD MSTORE PUSH1 0x1B PUSH1 0x24 DUP3 ADD MSTORE PUSH32 0x436572746966696361746520616C7265616479207265766F6B65640000000000 PUSH1 0x44 DUP3 ADD MSTORE PUSH1 0x64 ADD PUSH2 0x23D JUMP JUMPDEST PUSH1 0x7 DUP2 ADD DUP1 SLOAD PUSH1 0xFF NOT AND SWAP1 SSTORE PUSH1 0x40 MLOAD PUSH2 0x362 SWAP1 DUP5 SWAP1 PUSH2 0x14E9 JUMP JUMPDEST PUSH1 0x40 MLOAD SWAP1 DUP2 SWAP1 SUB DUP2 KECCAK256 CALLER DUP3 MSTORE SWAP1 PUSH32 0x7B87DF98E4FF33F07A9FBDA6F93A6B69C498E48444877DA8C54A83D3A43AEE5B SWAP1 PUSH1 0x20 ADD PUSH1 0x40 MLOAD DUP1 SWAP2 SUB SWAP1 LOG2 POP POP POP JUMP JUMPDEST PUSH1 0x0 SLOAD PUSH1 0x1 PUSH1 0x1 PUSH1 0xA0 SHL SUB AND CALLER EQ PUSH2 0x3CB JUMPI PUSH1 0x40 MLOAD PUSH3 0x461BCD PUSH1 0xE5 SHL DUP2 MSTORE PUSH1 0x4 ADD PUSH2 0x23D SWAP1 PUSH2 0x153F JUMP JUMPDEST PUSH1 0x1 PUSH1 0x1 PUSH1 0xA0 SHL SUB DUP2 AND PUSH1 0x0 SWAP1 DUP2 MSTORE PUSH1 0x2 PUSH1 0x20 MSTORE PUSH1 0x40 SWAP1 KECCAK256 PUSH1 0x1 ADD SLOAD PUSH1 0xFF AND PUSH2 0x436 JUMPI PUSH1 0x40 MLOAD PUSH3 0x461BCD PUSH1 0xE5 SHL DUP2 MSTORE PUSH1 0x20 PUSH1 0x4 DUP3 ADD MSTORE PUSH1 0x1A PUSH1 0x24 DUP3 ADD MSTORE PUSH32 0x496E737469747574696F6E206E6F7420617574686F72697A6564000000000000 PUSH1 0x44 DUP3 ADD MSTORE PUSH1 0x64 ADD PUSH2 0x23D JUMP JUMPDEST PUSH1 0x1 PUSH1 0x1 PUSH1 0xA0 SHL SUB DUP2 AND PUSH1 0x0 DUP2 DUP2 MSTORE PUSH1 0x2 PUSH1 0x20 MSTORE PUSH1 0x40 DUP1 DUP3 KECCAK256 PUSH1 0x1 ADD DUP1 SLOAD PUSH1 0xFF NOT AND SWAP1 SSTORE MLOAD PUSH32 0x5F2C961A0DB2D72FA01BFAE36AACA642457678D9C63ADACA86C8CB1B3D1230F4 SWAP2 SWAP1 LOG2 POP JUMP JUMPDEST PUSH1 0x1 PUSH1 0x1 PUSH1 0xA0 SHL SUB DUP2 AND PUSH1 0x0 SWAP1 DUP2 MSTORE PUSH1 0x2 PUSH1 0x20 MSTORE PUSH1 0x40 DUP1 DUP3 KECCAK256 DUP2 MLOAD DUP1 DUP4 ADD SWAP1 SWAP3 MSTORE DUP1 SLOAD PUSH1 0x60 SWAP3 DUP5 SWAP3 SWAP1 SWAP2 DUP3 SWAP1 DUP3 SWAP1 PUSH2 0x4B9 SWAP1 PUSH2 0x1505 JUMP JUMPDEST DUP1 PUSH1 0x1F ADD PUSH1 0x20 DUP1 SWAP2 DIV MUL PUSH1 0x20 ADD PUSH1 0x40 MLOAD SWAP1 DUP2 ADD PUSH1 0x40 MSTORE DUP1 SWAP3 SWAP2 SWAP1 DUP2 DUP2 MSTORE PUSH1 0x20 ADD DUP3 DUP1 SLOAD PUSH2 0x4E5 SWAP1 PUSH2 0x1505 JUMP JUMPDEST DUP1 ISZERO PUSH2 0x532 JUMPI DUP1 PUSH1 0x1F LT PUSH2 0x507 JUMPI PUSH2 0x100 DUP1 DUP4 SLOAD DIV MUL DUP4 MSTORE SWAP2 PUSH1 0x20 ADD SWAP2 PUSH2 0x532 JUMP JUMPDEST DUP3 ADD SWAP2 SWAP1 PUSH1 0x0 MSTORE PUSH1 0x20 PUSH1 0x0 KECCAK256 SWAP1 JUMPDEST DUP2 SLOAD DUP2 MSTORE SWAP1 PUSH1 0x1 ADD SWAP1 PUSH1 0x20 ADD DUP1 DUP4 GT PUSH2 0x515 JUMPI DUP3 SWAP1 SUB PUSH1 0x1F AND DUP3 ADD SWAP2 JUMPDEST POP POP POP SWAP2 DUP4 MSTORE POP POP PUSH1 0x1 SWAP2 SWAP1 SWAP2 ADD SLOAD PUSH1 0xFF AND ISZERO ISZERO PUSH1 0x20 SWAP2 DUP3 ADD MSTORE DUP2 ADD MLOAD SWAP1 MLOAD SWAP1 SWAP6 SWAP1 SWAP5 POP SWAP3 POP POP POP JUMP JUMPDEST PUSH1 0x0 DUP1 PUSH1 0x1 DUP4 PUSH1 0x40 MLOAD PUSH2 0x56F SWAP2 SWAP1 PUSH2 0x14E9 JUMP JUMPDEST SWAP1 DUP2 MSTORE PUSH1 0x40 MLOAD SWAP1 DUP2 SWAP1 SUB PUSH1 0x20 ADD SWAP1 KECCAK256 DUP1 SLOAD PUSH2 0x589 SWAP1 PUSH2 0x1505 JUMP JUMPDEST SWAP1 POP GT SWAP1 POP SWAP2 SWAP1 POP JUMP JUMPDEST PUSH1 0x60 DUP1 PUSH1 0x60 DUP1 PUSH1 0x60 DUP1 PUSH1 0x0 DUP1 PUSH1 0x0 DUP1 PUSH1 0x0 PUSH1 0x1 DUP13 PUSH1 0x40 MLOAD PUSH2 0x5B4 SWAP2 SWAP1 PUSH2 0x14E9 JUMP JUMPDEST SWAP1 DUP2 MSTORE PUSH1 0x20 ADD PUSH1 0x40 MLOAD DUP1 SWAP2 SUB SWAP1 KECCAK256 PUSH1 0x40 MLOAD DUP1 PUSH2 0x120 ADD PUSH1 0x40 MSTORE SWAP1 DUP2 PUSH1 0x0 DUP3 ADD DUP1 SLOAD PUSH2 0x5DE SWAP1 PUSH2 0x1505 JUMP JUMPDEST DUP1 PUSH1 0x1F ADD PUSH1 0x20 DUP1 SWAP2 DIV MUL PUSH1 0x20 ADD PUSH1 0x40 MLOAD SWAP1 DUP2 ADD PUSH1 0x40 MSTORE DUP1 SWAP3 SWAP2 SWAP1 DUP2 DUP2 MSTORE PUSH1 0x20 ADD DUP3 DUP1 SLOAD PUSH2 0x60A SWAP1 PUSH2 0x1505 JUMP JUMPDEST DUP1 ISZERO PUSH2 0x657 JUMPI DUP1 PUSH1 0x1F LT PUSH2 0x62C JUMPI PUSH2 0x100 DUP1 DUP4 SLOAD DIV MUL DUP4 MSTORE SWAP2 PUSH1 0x20 ADD SWAP2 PUSH2 0x657 JUMP JUMPDEST DUP3 ADD SWAP2 SWAP1 PUSH1 0x0 MSTORE PUSH1 0x20 PUSH1 0x0 KECCAK256 SWAP1 JUMPDEST DUP2 SLOAD DUP2 MSTORE SWAP1 PUSH1 0x1 ADD SWAP1 PUSH1 0x20 ADD DUP1 DUP4 GT PUSH2 0x63A JUMPI DUP3 SWAP1 SUB PUSH1 0x1F AND DUP3 ADD SWAP2 JUMPDEST POP POP POP POP POP DUP2 MSTORE PUSH1 0x20 ADD PUSH1 0x1 DUP3 ADD DUP1 SLOAD PUSH2 0x670 SWAP1 PUSH2 0x1505 JUMP JUMPDEST DUP1 PUSH1 0x1F ADD PUSH1 0x20 DUP1 SWAP2 DIV MUL PUSH1 0x20 ADD PUSH1 0x40 MLOAD SWAP1 DUP2 ADD PUSH1 0x40 MSTORE DUP1 SWAP3 SWAP2 SWAP1 DUP2 DUP2 MSTORE PUSH1 0x20 ADD DUP3 DUP1 SLOAD PUSH2 0x69C SWAP1 PUSH2 0x1505 JUMP JUMPDEST DUP1 ISZERO PUSH2 0x6E9 JUMPI DUP1 PUSH1 0x1F LT PUSH2 0x6BE JUMPI PUSH2 0x100 DUP1 DUP4 SLOAD DIV MUL DUP4 MSTORE SWAP2 PUSH1 0x20 ADD SWAP2 PUSH2 0x6E9 JUMP JUMPDEST DUP3 ADD SWAP2 SWAP1 PUSH1 0x0 MSTORE PUSH1 0x20 PUSH1 0x0 KECCAK256 SWAP1 JUMPDEST DUP2 SLOAD DUP2 MSTORE SWAP1 PUSH1 0x1 ADD SWAP1 PUSH1 0x20 ADD DUP1 DUP4 GT PUSH2 0x6CC JUMPI DUP3 SWAP1 SUB PUSH1 0x1F AND DUP3 ADD SWAP2 JUMPDEST POP POP POP POP POP DUP2 MSTORE PUSH1 0x20 ADD PUSH1 0x2 DUP3 ADD DUP1 SLOAD PUSH2 0x702 SWAP1 PUSH2 0x1505 JUMP JUMPDEST DUP1 PUSH1 0x1F ADD PUSH1 0x20 DUP1 SWAP2 DIV MUL PUSH1 0x20 ADD PUSH1 0x40 MLOAD SWAP1 DUP2 ADD PUSH1 0x40 MSTORE DUP1 SWAP3 SWAP2 SWAP1 DUP2 DUP2 MSTORE PUSH1 0x20 ADD DUP3 DUP1 SLOAD PUSH2 0x72E SWAP1 PUSH2 0x1505 JUMP JUMPDEST DUP1 ISZERO PUSH2 0x77B JUMPI DUP1 PUSH1 0x1F LT PUSH2 0x750 JUMPI PUSH2 0x100 DUP1 DUP4 SLOAD DIV MUL DUP4 MSTORE SWAP2 PUSH1 0x20 ADD SWAP2 PUSH2 0x77B JUMP JUMPDEST DUP3 ADD SWAP2 SWAP1 PUSH1 0x0 MSTORE PUSH1 0x20 PUSH1 0x0 KECCAK256 SWAP1 JUMPDEST DUP2 SLOAD DUP2 MSTORE SWAP1 PUSH1 0x1 ADD SWAP1 PUSH1 0x20 ADD DUP1 DUP4 GT PUSH2 0x75E JUMPI DUP3 SWAP1 SUB PUSH1 0x1F AND DUP3 ADD SWAP2 JUMPDEST POP POP POP POP POP DUP2 MSTORE PUSH1 0x20 ADD PUSH1 0x3 DUP3 ADD DUP1 SLOAD PUSH2 0x794 SWAP1 PUSH2 0x1505 JUMP JUMPDEST DUP1 PUSH1 0x1F ADD PUSH1 0x20 DUP1 SWAP2 DIV MUL PUSH1 0x20 ADD PUSH1 0x40 MLOAD SWAP1 DUP2 ADD PUSH1 0x40 MSTORE DUP1 SWAP3 SWAP2 SWAP1 DUP2 DUP2 MSTORE PUSH1 0x20 ADD DUP3 DUP1 SLOAD PUSH2 0x7C0 SWAP1 PUSH2 0x1505 JUMP JUMPDEST DUP1 ISZERO PUSH2 0x80D JUMPI DUP1 PUSH1 0x1F LT PUSH2 0x7E2 JUMPI PUSH2 0x100 DUP1 DUP4 SLOAD DIV MUL DUP4 MSTORE SWAP2 PUSH1 0x20 ADD SWAP2 PUSH2 0x80D JUMP JUMPDEST DUP3 ADD SWAP2 SWAP1 PUSH1 0x0 MSTORE PUSH1 0x20 PUSH1 0x0 KECCAK256 SWAP1 JUMPDEST DUP2 SLOAD DUP2 MSTORE SWAP1 PUSH1 0x1 ADD SWAP1 PUSH1 0x20 ADD DUP1 DUP4 GT PUSH2 0x7F0 JUMPI DUP3 SWAP1 SUB PUSH1 0x1F AND DUP3 ADD SWAP2 JUMPDEST POP POP POP POP POP DUP2 MSTORE PUSH1 0x20 ADD PUSH1 0x4 DUP3 ADD DUP1 SLOAD PUSH2 0x826 SWAP1 PUSH2 0x1505 JUMP JUMPDEST DUP1 PUSH1 0x1F ADD PUSH1 0x20 DUP1 SWAP2 DIV MUL PUSH1 0x20 ADD PUSH1 0x40 MLOAD SWAP1 DUP2 ADD PUSH1 0x40 MSTORE DUP1 SWAP3 SWAP2 SWAP1 DUP2 DUP2 MSTORE PUSH1 0x20 ADD DUP3 DUP1 SLOAD PUSH2 0x852 SWAP1 PUSH2 0x1505 JUMP JUMPDEST DUP1 ISZERO PUSH2 0x89F JUMPI DUP1 PUSH1 0x1F LT PUSH2 0x874 JUMPI PUSH2 0x100 DUP1 DUP4 SLOAD DIV MUL DUP4 MSTORE SWAP2 PUSH1 0x20 ADD SWAP2 PUSH2 0x89F JUMP JUMPDEST DUP3 ADD SWAP2 SWAP1 PUSH1 0x0 MSTORE PUSH1 0x20 PUSH1 0x0 KECCAK256 SWAP1 JUMPDEST DUP2 SLOAD DUP2 MSTORE SWAP1 PUSH1 0x1 ADD SWAP1 PUSH1 0x20 ADD DUP1 DUP4 GT PUSH2 0x882 JUMPI DUP3 SWAP1 SUB PUSH1 0x1F AND DUP3 ADD SWAP2 JUMPDEST POP POP POP POP POP DUP2 MSTORE PUSH1 0x20 ADD PUSH1 0x5 DUP3 ADD DUP1 SLOAD PUSH2 0x8B8 SWAP1 PUSH2 0x1505 JUMP JUMPDEST DUP1 PUSH1 0x1F ADD PUSH1 0x20 DUP1 SWAP2 DIV MUL PUSH1 0x20 ADD PUSH1 0x40 MLOAD SWAP1 DUP2 ADD PUSH1 0x40 MSTORE DUP1 SWAP3 SWAP2 SWAP1 DUP2 DUP2 MSTORE PUSH1 0x20 ADD DUP3 DUP1 SLOAD PUSH2 0x8E4 SWAP1 PUSH2 0x1505 JUMP JUMPDEST DUP1 ISZERO PUSH2 0x931 JUMPI DUP1 PUSH1 0x1F LT PUSH2 0x906 JUMPI PUSH2 0x100 DUP1 DUP4 SLOAD DIV MUL DUP4 MSTORE SWAP2 PUSH1 0x20 ADD SWAP2 PUSH2 0x931 JUMP JUMPDEST DUP3 ADD SWAP2 SWAP1 PUSH1 0x0 MSTORE PUSH1 0x20 PUSH1 0x0 KECCAK256 SWAP1 JUMPDEST DUP2 SLOAD DUP2 MSTORE SWAP1 PUSH1 0x1 ADD SWAP1 PUSH1 0x20 ADD DUP1 DUP4 GT PUSH2 0x914 JUMPI DUP3 SWAP1 SUB PUSH1 0x1F AND DUP3 ADD SWAP2 JUMPDEST POP POP POP SWAP2 DUP4 MSTORE POP POP PUSH1 0x6 DUP3 ADD SLOAD PUSH1 0x20 DUP3 ADD MSTORE PUSH1 0x7 SWAP1 SWAP2 ADD SLOAD PUSH1 0xFF DUP2 AND ISZERO ISZERO PUSH1 0x40 DUP4 ADD MSTORE PUSH2 0x100 SWAP1 DIV PUSH1 0x1 PUSH1 0x1 PUSH1 0xA0 SHL SUB AND PUSH1 0x60 SWAP1 SWAP2 ADD MSTORE DUP1 MLOAD MLOAD SWAP1 SWAP2 POP PUSH1 0x0 SUB PUSH2 0x9D9 JUMPI POP POP PUSH1 0x40 DUP1 MLOAD PUSH1 0x20 DUP1 DUP3 ADD DUP4 MSTORE PUSH1 0x0 DUP1 DUP4 MSTORE DUP4 MLOAD DUP1 DUP4 ADD DUP6 MSTORE DUP2 DUP2 MSTORE DUP5 MLOAD DUP1 DUP5 ADD DUP7 MSTORE DUP3 DUP2 MSTORE DUP6 MLOAD DUP1 DUP6 ADD DUP8 MSTORE DUP4 DUP2 MSTORE DUP7 MLOAD DUP1 DUP7 ADD DUP9 MSTORE DUP5 DUP2 MSTORE DUP8 MLOAD SWAP6 DUP7 ADD SWAP1 SWAP8 MSTORE DUP4 DUP6 MSTORE SWAP5 SWAP15 POP SWAP1 SWAP13 POP SWAP11 POP SWAP2 SWAP9 POP SWAP2 SWAP7 POP SWAP1 SWAP5 POP SWAP3 POP DUP3 SWAP2 POP DUP2 SWAP1 POP DUP1 PUSH2 0xA22 JUMP JUMPDEST DUP1 PUSH1 0x0 ADD MLOAD DUP2 PUSH1 0x20 ADD MLOAD DUP3 PUSH1 0x40 ADD MLOAD DUP4 PUSH1 0x60 ADD MLOAD DUP5 PUSH1 0x80 ADD MLOAD DUP6 PUSH1 0xA0 ADD MLOAD DUP7 PUSH1 0xC0 ADD MLOAD DUP8 PUSH1 0xE0 ADD MLOAD DUP9 PUSH2 0x100 ADD MLOAD DUP10 PUSH1 0xE0 ADD MLOAD SWAP11 POP SWAP11 POP SWAP11 POP SWAP11 POP SWAP11 POP SWAP11 POP SWAP11 POP SWAP11 POP SWAP11 POP SWAP11 POP POP JUMPDEST SWAP2 SWAP4 SWAP6 SWAP8 SWAP10 POP SWAP2 SWAP4 SWAP6 SWAP8 SWAP10 JUMP JUMPDEST CALLER PUSH1 0x0 SWAP1 DUP2 MSTORE PUSH1 0x2 PUSH1 0x20 MSTORE PUSH1 0x40 SWAP1 KECCAK256 PUSH1 0x1 ADD SLOAD PUSH1 0xFF AND PUSH2 0xAA1 JUMPI PUSH1 0x40 MLOAD PUSH3 0x461BCD PUSH1 0xE5 SHL DUP2 MSTORE PUSH1 0x20 PUSH1 0x4 DUP3 ADD MSTORE PUSH1 0x27 PUSH1 0x24 DUP3 ADD MSTORE PUSH32 0x43616C6C6572206973206E6F7420616E20617574686F72697A656420696E7374 PUSH1 0x44 DUP3 ADD MSTORE PUSH7 0x34BA3ABA34B7B7 PUSH1 0xC9 SHL PUSH1 0x64 DUP3 ADD MSTORE PUSH1 0x84 ADD PUSH2 0x23D JUMP JUMPDEST PUSH1 0x0 DUP7 MLOAD GT PUSH2 0xAF2 JUMPI PUSH1 0x40 MLOAD PUSH3 0x461BCD PUSH1 0xE5 SHL DUP2 MSTORE PUSH1 0x20 PUSH1 0x4 DUP3 ADD MSTORE PUSH1 0x17 PUSH1 0x24 DUP3 ADD MSTORE PUSH32 0x4365727469666963617465204944207265717569726564000000000000000000 PUSH1 0x44 DUP3 ADD MSTORE PUSH1 0x64 ADD PUSH2 0x23D JUMP JUMPDEST PUSH1 0x0 DUP6 MLOAD GT PUSH2 0xB3B JUMPI PUSH1 0x40 MLOAD PUSH3 0x461BCD PUSH1 0xE5 SHL DUP2 MSTORE PUSH1 0x20 PUSH1 0x4 DUP3 ADD MSTORE PUSH1 0x15 PUSH1 0x24 DUP3 ADD MSTORE PUSH21 0x14DD1D59195B9D081B985B59481C995C5D5A5C9959 PUSH1 0x5A SHL PUSH1 0x44 DUP3 ADD MSTORE PUSH1 0x64 ADD PUSH2 0x23D JUMP JUMPDEST PUSH1 0x0 DUP5 MLOAD GT PUSH2 0xB8C JUMPI PUSH1 0x40 MLOAD PUSH3 0x461BCD PUSH1 0xE5 SHL DUP2 MSTORE PUSH1 0x20 PUSH1 0x4 DUP3 ADD MSTORE PUSH1 0x1C PUSH1 0x24 DUP3 ADD MSTORE PUSH32 0x526567697374726174696F6E206E756D62657220726571756972656400000000 PUSH1 0x44 DUP3 ADD MSTORE PUSH1 0x64 ADD PUSH2 0x23D JUMP JUMPDEST PUSH1 0x0 DUP4 MLOAD GT PUSH2 0xBCF JUMPI PUSH1 0x40 MLOAD PUSH3 0x461BCD PUSH1 0xE5 SHL DUP2 MSTORE PUSH1 0x20 PUSH1 0x4 DUP3 ADD MSTORE PUSH1 0xF PUSH1 0x24 DUP3 ADD MSTORE PUSH15 0x111959DC9959481C995C5D5A5C9959 PUSH1 0x8A SHL PUSH1 0x44 DUP3 ADD MSTORE PUSH1 0x64 ADD PUSH2 0x23D JUMP JUMPDEST PUSH1 0x0 DUP3 MLOAD GT PUSH2 0xC17 JUMPI PUSH1 0x40 MLOAD PUSH3 0x461BCD PUSH1 0xE5 SHL DUP2 MSTORE PUSH1 0x20 PUSH1 0x4 DUP3 ADD MSTORE PUSH1 0x14 PUSH1 0x24 DUP3 ADD MSTORE PUSH20 0x125B9CDD1A5D1D5D1A5BDB881C995C5D5A5C9959 PUSH1 0x62 SHL PUSH1 0x44 DUP3 ADD MSTORE PUSH1 0x64 ADD PUSH2 0x23D JUMP JUMPDEST PUSH1 0x0 DUP2 MLOAD GT PUSH2 0xC5D JUMPI PUSH1 0x40 MLOAD PUSH3 0x461BCD PUSH1 0xE5 SHL DUP2 MSTORE PUSH1 0x20 PUSH1 0x4 DUP3 ADD MSTORE PUSH1 0x12 PUSH1 0x24 DUP3 ADD MSTORE PUSH18 0x12541194C81A185CDA081C995C5D5A5C9959 PUSH1 0x72 SHL PUSH1 0x44 DUP3 ADD MSTORE PUSH1 0x64 ADD PUSH2 0x23D JUMP JUMPDEST PUSH1 0x1 DUP7 PUSH1 0x40 MLOAD PUSH2 0xC6D SWAP2 SWAP1 PUSH2 0x14E9 JUMP JUMPDEST SWAP1 DUP2 MSTORE PUSH1 0x40 MLOAD SWAP1 DUP2 SWAP1 SUB PUSH1 0x20 ADD SWAP1 KECCAK256 DUP1 SLOAD PUSH2 0xC87 SWAP1 PUSH2 0x1505 JUMP JUMPDEST ISZERO SWAP1 POP PUSH2 0xCD6 JUMPI PUSH1 0x40 MLOAD PUSH3 0x461BCD PUSH1 0xE5 SHL DUP2 MSTORE PUSH1 0x20 PUSH1 0x4 DUP3 ADD MSTORE PUSH1 0x1D PUSH1 0x24 DUP3 ADD MSTORE PUSH32 0x436572746966696361746520494420616C726561647920657869737473000000 PUSH1 0x44 DUP3 ADD MSTORE PUSH1 0x64 ADD PUSH2 0x23D JUMP JUMPDEST PUSH1 0x40 MLOAD DUP1 PUSH2 0x120 ADD PUSH1 0x40 MSTORE DUP1 DUP8 DUP2 MSTORE PUSH1 0x20 ADD DUP7 DUP2 MSTORE PUSH1 0x20 ADD DUP6 DUP2 MSTORE PUSH1 0x20 ADD DUP5 DUP2 MSTORE PUSH1 0x20 ADD DUP4 DUP2 MSTORE PUSH1 0x20 ADD DUP3 DUP2 MSTORE PUSH1 0x20 ADD TIMESTAMP DUP2 MSTORE PUSH1 0x20 ADD PUSH1 0x1 ISZERO ISZERO DUP2 MSTORE PUSH1 0x20 ADD CALLER PUSH1 0x1 PUSH1 0x1 PUSH1 0xA0 SHL SUB AND DUP2 MSTORE POP PUSH1 0x1 DUP8 PUSH1 0x40 MLOAD PUSH2 0xD32 SWAP2 SWAP1 PUSH2 0x14E9 JUMP JUMPDEST SWAP1 DUP2 MSTORE PUSH1 0x40 MLOAD SWAP1 DUP2 SWAP1 SUB PUSH1 0x20 ADD SWAP1 KECCAK256 DUP2 MLOAD DUP2 SWAP1 PUSH2 0xD4F SWAP1 DUP3 PUSH2 0x15CF JUMP JUMPDEST POP PUSH1 0x20 DUP3 ADD MLOAD PUSH1 0x1 DUP3 ADD SWAP1 PUSH2 0xD64 SWAP1 DUP3 PUSH2 0x15CF JUMP JUMPDEST POP PUSH1 0x40 DUP3 ADD MLOAD PUSH1 0x2 DUP3 ADD SWAP1 PUSH2 0xD79 SWAP1 DUP3 PUSH2 0x15CF JUMP JUMPDEST POP PUSH1 0x60 DUP3 ADD MLOAD PUSH1 0x3 DUP3 ADD SWAP1 PUSH2 0xD8E SWAP1 DUP3 PUSH2 0x15CF JUMP JUMPDEST POP PUSH1 0x80 DUP3 ADD MLOAD PUSH1 0x4 DUP3 ADD SWAP1 PUSH2 0xDA3 SWAP1 DUP3 PUSH2 0x15CF JUMP JUMPDEST POP PUSH1 0xA0 DUP3 ADD MLOAD PUSH1 0x5 DUP3 ADD SWAP1 PUSH2 0xDB8 SWAP1 DUP3 PUSH2 0x15CF JUMP JUMPDEST POP PUSH1 0xC0 DUP3 ADD MLOAD PUSH1 0x6 DUP3 ADD SSTORE PUSH1 0xE0 DUP3 ADD MLOAD PUSH1 0x7 SWAP1 SWAP2 ADD DUP1 SLOAD PUSH2 0x100 SWAP4 DUP5 ADD MLOAD PUSH1 0x1 PUSH1 0x1 PUSH1 0xA8 SHL SUB NOT SWAP1 SWAP2 AND SWAP3 ISZERO ISZERO PUSH2 0x100 PUSH1 0x1 PUSH1 0xA8 SHL SUB NOT AND SWAP3 SWAP1 SWAP3 OR PUSH1 0x1 PUSH1 0x1 PUSH1 0xA0 SHL SUB SWAP1 SWAP3 AND SWAP1 SWAP3 MUL OR SWAP1 SSTORE PUSH1 0x40 MLOAD PUSH1 0x3 SWAP1 PUSH2 0xE16 SWAP1 DUP7 SWAP1 PUSH2 0x14E9 JUMP JUMPDEST SWAP1 DUP2 MSTORE PUSH1 0x40 MLOAD PUSH1 0x20 SWAP2 DUP2 SWAP1 SUB DUP3 ADD SWAP1 KECCAK256 DUP1 SLOAD PUSH1 0x1 DUP2 ADD DUP3 SSTORE PUSH1 0x0 SWAP2 DUP3 MSTORE SWAP2 SWAP1 KECCAK256 ADD PUSH2 0xE41 DUP8 DUP3 PUSH2 0x15CF JUMP JUMPDEST POP PUSH1 0x4 DUP1 SLOAD SWAP1 PUSH1 0x0 PUSH2 0xE52 DUP4 PUSH2 0x168F JUMP JUMPDEST SWAP2 SWAP1 POP SSTORE POP DUP6 PUSH1 0x40 MLOAD PUSH2 0xE65 SWAP2 SWAP1 PUSH2 0x14E9 JUMP JUMPDEST PUSH1 0x40 MLOAD DUP1 SWAP2 SUB SWAP1 KECCAK256 PUSH32 0x98EB45068E1DA1F9CC96ADD03CCB87A8E8E684D20BDA8390A73C006F780EBAE1 DUP7 DUP7 DUP7 TIMESTAMP PUSH1 0x40 MLOAD PUSH2 0xEA2 SWAP5 SWAP4 SWAP3 SWAP2 SWAP1 PUSH2 0x16B6 JUMP JUMPDEST PUSH1 0x40 MLOAD DUP1 SWAP2 SUB SWAP1 LOG2 POP POP POP POP POP POP JUMP JUMPDEST PUSH1 0x60 PUSH1 0x3 DUP3 PUSH1 0x40 MLOAD PUSH2 0xEC4 SWAP2 SWAP1 PUSH2 0x14E9 JUMP JUMPDEST SWAP1 DUP2 MSTORE PUSH1 0x20 ADD PUSH1 0x40 MLOAD DUP1 SWAP2 SUB SWAP1 KECCAK256 DUP1 SLOAD DUP1 PUSH1 0x20 MUL PUSH1 0x20 ADD PUSH1 0x40 MLOAD SWAP1 DUP2 ADD PUSH1 0x40 MSTORE DUP1 SWAP3 SWAP2 SWAP1 DUP2 DUP2 MSTORE PUSH1 0x20 ADD PUSH1 0x0 SWAP1 JUMPDEST DUP3 DUP3 LT ISZERO PUSH2 0xF9E JUMPI DUP4 DUP3 SWAP1 PUSH1 0x0 MSTORE PUSH1 0x20 PUSH1 0x0 KECCAK256 ADD DUP1 SLOAD PUSH2 0xF11 SWAP1 PUSH2 0x1505 JUMP JUMPDEST DUP1 PUSH1 0x1F ADD PUSH1 0x20 DUP1 SWAP2 DIV MUL PUSH1 0x20 ADD PUSH1 0x40 MLOAD SWAP1 DUP2 ADD PUSH1 0x40 MSTORE DUP1 SWAP3 SWAP2 SWAP1 DUP2 DUP2 MSTORE PUSH1 0x20 ADD DUP3 DUP1 SLOAD PUSH2 0xF3D SWAP1 PUSH2 0x1505 JUMP JUMPDEST DUP1 ISZERO PUSH2 0xF8A JUMPI DUP1 PUSH1 0x1F LT PUSH2 0xF5F JUMPI PUSH2 0x100 DUP1 DUP4 SLOAD DIV MUL DUP4 MSTORE SWAP2 PUSH1 0x20 ADD SWAP2 PUSH2 0xF8A JUMP JUMPDEST DUP3 ADD SWAP2 SWAP1 PUSH1 0x0 MSTORE PUSH1 0x20 PUSH1 0x0 KECCAK256 SWAP1 JUMPDEST DUP2 SLOAD DUP2 MSTORE SWAP1 PUSH1 0x1 ADD SWAP1 PUSH1 0x20 ADD DUP1 DUP4 GT PUSH2 0xF6D JUMPI DUP3 SWAP1 SUB PUSH1 0x1F AND DUP3 ADD SWAP2 JUMPDEST POP POP POP POP POP DUP2 MSTORE PUSH1 0x20 ADD SWAP1 PUSH1 0x1 ADD SWAP1 PUSH2 0xEF2 JUMP JUMPDEST POP POP POP POP SWAP1 POP SWAP2 SWAP1 POP JUMP JUMPDEST PUSH1 0x0 SLOAD PUSH1 0x1 PUSH1 0x1 PUSH1 0xA0 SHL SUB AND CALLER EQ PUSH2 0xFD3 JUMPI PUSH1 0x40 MLOAD PUSH3 0x461BCD PUSH1 0xE5 SHL DUP2 MSTORE PUSH1 0x4 ADD PUSH2 0x23D SWAP1 PUSH2 0x153F JUMP JUMPDEST PUSH1 0x1 PUSH1 0x1 PUSH1 0xA0 SHL SUB DUP3 AND PUSH2 0x101B JUMPI PUSH1 0x40 MLOAD PUSH3 0x461BCD PUSH1 0xE5 SHL DUP2 MSTORE PUSH1 0x20 PUSH1 0x4 DUP3 ADD MSTORE PUSH1 0xF PUSH1 0x24 DUP3 ADD MSTORE PUSH15 0x496E76616C69642061646472657373 PUSH1 0x88 SHL PUSH1 0x44 DUP3 ADD MSTORE PUSH1 0x64 ADD PUSH2 0x23D JUMP JUMPDEST PUSH1 0x0 DUP2 MLOAD GT PUSH2 0x106C JUMPI PUSH1 0x40 MLOAD PUSH3 0x461BCD PUSH1 0xE5 SHL DUP2 MSTORE PUSH1 0x20 PUSH1 0x4 DUP3 ADD MSTORE PUSH1 0x19 PUSH1 0x24 DUP3 ADD MSTORE PUSH32 0x496E737469747574696F6E206E616D6520726571756972656400000000000000 PUSH1 0x44 DUP3 ADD MSTORE PUSH1 0x64 ADD PUSH2 0x23D JUMP JUMPDEST PUSH1 0x40 DUP1 MLOAD DUP1 DUP3 ADD DUP3 MSTORE DUP3 DUP2 MSTORE PUSH1 0x1 PUSH1 0x20 DUP1 DUP4 ADD SWAP2 SWAP1 SWAP2 MSTORE PUSH1 0x1 PUSH1 0x1 PUSH1 0xA0 SHL SUB DUP6 AND PUSH1 0x0 SWAP1 DUP2 MSTORE PUSH1 0x2 SWAP1 SWAP2 MSTORE SWAP2 SWAP1 SWAP2 KECCAK256 DUP2 MLOAD DUP2 SWAP1 PUSH2 0x10A9 SWAP1 DUP3 PUSH2 0x15CF JUMP JUMPDEST POP PUSH1 0x20 SWAP2 SWAP1 SWAP2 ADD MLOAD PUSH1 0x1 SWAP1 SWAP2 ADD DUP1 SLOAD PUSH1 0xFF NOT AND SWAP2 ISZERO ISZERO SWAP2 SWAP1 SWAP2 OR SWAP1 SSTORE PUSH1 0x40 MLOAD PUSH1 0x1 PUSH1 0x1 PUSH1 0xA0 SHL SUB DUP4 AND SWAP1 PUSH32 0xA09EF0C5B609880C9223C311BCAD10DCA2E49107569BB3CAEE0288501CCDA2CC SWAP1 PUSH2 0x1100 SWAP1 DUP5 SWAP1 PUSH2 0x1701 JUMP JUMPDEST PUSH1 0x40 MLOAD DUP1 SWAP2 SUB SWAP1 LOG2 POP POP JUMP JUMPDEST PUSH4 0x4E487B71 PUSH1 0xE0 SHL PUSH1 0x0 MSTORE PUSH1 0x41 PUSH1 0x4 MSTORE PUSH1 0x24 PUSH1 0x0 REVERT JUMPDEST PUSH1 0x0 DUP3 PUSH1 0x1F DUP4 ADD SLT PUSH2 0x1133 JUMPI PUSH1 0x0 DUP1 REVERT JUMPDEST DUP2 CALLDATALOAD PUSH8 0xFFFFFFFFFFFFFFFF DUP1 DUP3 GT ISZERO PUSH2 0x114E JUMPI PUSH2 0x114E PUSH2 0x110C JUMP JUMPDEST PUSH1 0x40 MLOAD PUSH1 0x1F DUP4 ADD PUSH1 0x1F NOT SWAP1 DUP2 AND PUSH1 0x3F ADD AND DUP2 ADD SWAP1 DUP3 DUP3 GT DUP2 DUP4 LT OR ISZERO PUSH2 0x1176 JUMPI PUSH2 0x1176 PUSH2 0x110C JUMP JUMPDEST DUP2 PUSH1 0x40 MSTORE DUP4 DUP2 MSTORE DUP7 PUSH1 0x20 DUP6 DUP9 ADD ADD GT ISZERO PUSH2 0x118F JUMPI PUSH1 0x0 DUP1 REVERT JUMPDEST DUP4 PUSH1 0x20 DUP8 ADD PUSH1 0x20 DUP4 ADD CALLDATACOPY PUSH1 0x0 PUSH1 0x20 DUP6 DUP4 ADD ADD MSTORE DUP1 SWAP5 POP POP POP POP POP SWAP3 SWAP2 POP POP JUMP JUMPDEST PUSH1 0x0 PUSH1 0x20 DUP3 DUP5 SUB SLT ISZERO PUSH2 0x11C1 JUMPI PUSH1 0x0 DUP1 REVERT JUMPDEST DUP2 CALLDATALOAD PUSH8 0xFFFFFFFFFFFFFFFF DUP2 GT ISZERO PUSH2 0x11D8 JUMPI PUSH1 0x0 DUP1 REVERT JUMPDEST PUSH2 0x11E4 DUP5 DUP3 DUP6 ADD PUSH2 0x1122 JUMP JUMPDEST SWAP5 SWAP4 POP POP POP POP JUMP JUMPDEST DUP1 CALLDATALOAD PUSH1 0x1 PUSH1 0x1 PUSH1 0xA0 SHL SUB DUP2 AND DUP2 EQ PUSH2 0x1203 JUMPI PUSH1 0x0 DUP1 REVERT JUMPDEST SWAP2 SWAP1 POP JUMP JUMPDEST PUSH1 0x0 PUSH1 0x20 DUP3 DUP5 SUB SLT ISZERO PUSH2 0x121A JUMPI PUSH1 0x0 DUP1 REVERT JUMPDEST PUSH2 0x1223 DUP3 PUSH2 0x11EC JUMP JUMPDEST SWAP4 SWAP3 POP POP POP JUMP JUMPDEST PUSH1 0x0 JUMPDEST DUP4 DUP2 LT ISZERO PUSH2 0x1245 JUMPI DUP2 DUP2 ADD MLOAD DUP4 DUP3 ADD MSTORE PUSH1 0x20 ADD PUSH2 0x122D JUMP JUMPDEST POP POP PUSH1 0x0 SWAP2 ADD MSTORE JUMP JUMPDEST PUSH1 0x0 DUP2 MLOAD DUP1 DUP5 MSTORE PUSH2 0x1266 DUP2 PUSH1 0x20 DUP7 ADD PUSH1 0x20 DUP7 ADD PUSH2 0x122A JUMP JUMPDEST PUSH1 0x1F ADD PUSH1 0x1F NOT AND SWAP3 SWAP1 SWAP3 ADD PUSH1 0x20 ADD SWAP3 SWAP2 POP POP JUMP JUMPDEST DUP3 ISZERO ISZERO DUP2 MSTORE PUSH1 0x40 PUSH1 0x20 DUP3 ADD MSTORE PUSH1 0x0 PUSH2 0x11E4 PUSH1 0x40 DUP4 ADD DUP5 PUSH2 0x124E JUMP JUMPDEST PUSH1 0x0 PUSH2 0x140 DUP1 DUP4 MSTORE PUSH2 0x12A9 DUP2 DUP5 ADD DUP15 PUSH2 0x124E JUMP JUMPDEST SWAP1 POP DUP3 DUP2 SUB PUSH1 0x20 DUP5 ADD MSTORE PUSH2 0x12BD DUP2 DUP14 PUSH2 0x124E JUMP JUMPDEST SWAP1 POP DUP3 DUP2 SUB PUSH1 0x40 DUP5 ADD MSTORE PUSH2 0x12D1 DUP2 DUP13 PUSH2 0x124E JUMP JUMPDEST SWAP1 POP DUP3 DUP2 SUB PUSH1 0x60 DUP5 ADD MSTORE PUSH2 0x12E5 DUP2 DUP12 PUSH2 0x124E JUMP JUMPDEST SWAP1 POP DUP3 DUP2 SUB PUSH1 0x80 DUP5 ADD MSTORE PUSH2 0x12F9 DUP2 DUP11 PUSH2 0x124E JUMP JUMPDEST SWAP1 POP DUP3 DUP2 SUB PUSH1 0xA0 DUP5 ADD MSTORE PUSH2 0x130D DUP2 DUP10 PUSH2 0x124E JUMP JUMPDEST PUSH1 0xC0 DUP5 ADD SWAP8 SWAP1 SWAP8 MSTORE POP POP SWAP3 ISZERO ISZERO PUSH1 0xE0 DUP5 ADD MSTORE PUSH1 0x1 PUSH1 0x1 PUSH1 0xA0 SHL SUB SWAP2 SWAP1 SWAP2 AND PUSH2 0x100 DUP4 ADD MSTORE ISZERO ISZERO PUSH2 0x120 SWAP1 SWAP2 ADD MSTORE SWAP7 SWAP6 POP POP POP POP POP POP JUMP JUMPDEST PUSH1 0x0 DUP1 PUSH1 0x0 DUP1 PUSH1 0x0 DUP1 PUSH1 0xC0 DUP8 DUP10 SUB SLT ISZERO PUSH2 0x135D JUMPI PUSH1 0x0 DUP1 REVERT JUMPDEST DUP7 CALLDATALOAD PUSH8 0xFFFFFFFFFFFFFFFF DUP1 DUP3 GT ISZERO PUSH2 0x1375 JUMPI PUSH1 0x0 DUP1 REVERT JUMPDEST PUSH2 0x1381 DUP11 DUP4 DUP12 ADD PUSH2 0x1122 JUMP JUMPDEST SWAP8 POP PUSH1 0x20 DUP10 ADD CALLDATALOAD SWAP2 POP DUP1 DUP3 GT ISZERO PUSH2 0x1397 JUMPI PUSH1 0x0 DUP1 REVERT JUMPDEST PUSH2 0x13A3 DUP11 DUP4 DUP12 ADD PUSH2 0x1122 JUMP JUMPDEST SWAP7 POP PUSH1 0x40 DUP10 ADD CALLDATALOAD SWAP2 POP DUP1 DUP3 GT ISZERO PUSH2 0x13B9 JUMPI PUSH1 0x0 DUP1 REVERT JUMPDEST PUSH2 0x13C5 DUP11 DUP4 DUP12 ADD PUSH2 0x1122 JUMP JUMPDEST SWAP6 POP PUSH1 0x60 DUP10 ADD CALLDATALOAD SWAP2 POP DUP1 DUP3 GT ISZERO PUSH2 0x13DB JUMPI PUSH1 0x0 DUP1 REVERT JUMPDEST PUSH2 0x13E7 DUP11 DUP4 DUP12 ADD PUSH2 0x1122 JUMP JUMPDEST SWAP5 POP PUSH1 0x80 DUP10 ADD CALLDATALOAD SWAP2 POP DUP1 DUP3 GT ISZERO PUSH2 0x13FD JUMPI PUSH1 0x0 DUP1 REVERT JUMPDEST PUSH2 0x1409 DUP11 DUP4 DUP12 ADD PUSH2 0x1122 JUMP JUMPDEST SWAP4 POP PUSH1 0xA0 DUP10 ADD CALLDATALOAD SWAP2 POP DUP1 DUP3 GT ISZERO PUSH2 0x141F JUMPI PUSH1 0x0 DUP1 REVERT JUMPDEST POP PUSH2 0x142C DUP10 DUP3 DUP11 ADD PUSH2 0x1122 JUMP JUMPDEST SWAP2 POP POP SWAP3 SWAP6 POP SWAP3 SWAP6 POP SWAP3 SWAP6 JUMP JUMPDEST PUSH1 0x0 PUSH1 0x20 DUP1 DUP4 ADD DUP2 DUP5 MSTORE DUP1 DUP6 MLOAD DUP1 DUP4 MSTORE PUSH1 0x40 DUP7 ADD SWAP2 POP PUSH1 0x40 DUP2 PUSH1 0x5 SHL DUP8 ADD ADD SWAP3 POP DUP4 DUP8 ADD PUSH1 0x0 JUMPDEST DUP3 DUP2 LT ISZERO PUSH2 0x148E JUMPI PUSH1 0x3F NOT DUP9 DUP7 SUB ADD DUP5 MSTORE PUSH2 0x147C DUP6 DUP4 MLOAD PUSH2 0x124E JUMP JUMPDEST SWAP5 POP SWAP3 DUP6 ADD SWAP3 SWAP1 DUP6 ADD SWAP1 PUSH1 0x1 ADD PUSH2 0x1460 JUMP JUMPDEST POP SWAP3 SWAP8 SWAP7 POP POP POP POP POP POP POP JUMP JUMPDEST PUSH1 0x0 DUP1 PUSH1 0x40 DUP4 DUP6 SUB SLT ISZERO PUSH2 0x14AE JUMPI PUSH1 0x0 DUP1 REVERT JUMPDEST PUSH2 0x14B7 DUP4 PUSH2 0x11EC JUMP JUMPDEST SWAP2 POP PUSH1 0x20 DUP4 ADD CALLDATALOAD PUSH8 0xFFFFFFFFFFFFFFFF DUP2 GT ISZERO PUSH2 0x14D3 JUMPI PUSH1 0x0 DUP1 REVERT JUMPDEST PUSH2 0x14DF DUP6 DUP3 DUP7 ADD PUSH2 0x1122 JUMP JUMPDEST SWAP2 POP POP SWAP3 POP SWAP3 SWAP1 POP JUMP JUMPDEST PUSH1 0x0 DUP3 MLOAD PUSH2 0x14FB DUP2 DUP5 PUSH1 0x20 DUP8 ADD PUSH2 0x122A JUMP JUMPDEST SWAP2 SWAP1 SWAP2 ADD SWAP3 SWAP2 POP POP JUMP JUMPDEST PUSH1 0x1 DUP2 DUP2 SHR SWAP1 DUP3 AND DUP1 PUSH2 0x1519 JUMPI PUSH1 0x7F DUP3 AND SWAP2 POP JUMPDEST PUSH1 0x20 DUP3 LT DUP2 SUB PUSH2 0x1539 JUMPI PUSH4 0x4E487B71 PUSH1 0xE0 SHL PUSH1 0x0 MSTORE PUSH1 0x22 PUSH1 0x4 MSTORE PUSH1 0x24 PUSH1 0x0 REVERT JUMPDEST POP SWAP2 SWAP1 POP JUMP JUMPDEST PUSH1 0x20 DUP1 DUP3 MSTORE PUSH1 0x21 SWAP1 DUP3 ADD MSTORE PUSH32 0x4F6E6C7920636F6E7472616374206F776E65722063616E2063616C6C20746869 PUSH1 0x40 DUP3 ADD MSTORE PUSH1 0x73 PUSH1 0xF8 SHL PUSH1 0x60 DUP3 ADD MSTORE PUSH1 0x80 ADD SWAP1 JUMP JUMPDEST PUSH1 0x1F DUP3 GT ISZERO PUSH2 0x15CA JUMPI PUSH1 0x0 DUP2 DUP2 MSTORE PUSH1 0x20 DUP2 KECCAK256 PUSH1 0x1F DUP6 ADD PUSH1 0x5 SHR DUP2 ADD PUSH1 0x20 DUP7 LT ISZERO PUSH2 0x15A7 JUMPI POP DUP1 JUMPDEST PUSH1 0x1F DUP6 ADD PUSH1 0x5 SHR DUP3 ADD SWAP2 POP JUMPDEST DUP2 DUP2 LT ISZERO PUSH2 0x15C6 JUMPI DUP3 DUP2 SSTORE PUSH1 0x1 ADD PUSH2 0x15B3 JUMP JUMPDEST POP POP POP JUMPDEST POP POP POP JUMP JUMPDEST DUP2 MLOAD PUSH8 0xFFFFFFFFFFFFFFFF DUP2 GT ISZERO PUSH2 0x15E9 JUMPI PUSH2 0x15E9 PUSH2 0x110C JUMP JUMPDEST PUSH2 0x15FD DUP2 PUSH2 0x15F7 DUP5 SLOAD PUSH2 0x1505 JUMP JUMPDEST DUP5 PUSH2 0x1580 JUMP JUMPDEST PUSH1 0x20 DUP1 PUSH1 0x1F DUP4 GT PUSH1 0x1 DUP2 EQ PUSH2 0x1632 JUMPI PUSH1 0x0 DUP5 ISZERO PUSH2 0x161A JUMPI POP DUP6 DUP4 ADD MLOAD JUMPDEST PUSH1 0x0 NOT PUSH1 0x3 DUP7 SWAP1 SHL SHR NOT AND PUSH1 0x1 DUP6 SWAP1 SHL OR DUP6 SSTORE PUSH2 0x15C6 JUMP JUMPDEST PUSH1 0x0 DUP6 DUP2 MSTORE PUSH1 0x20 DUP2 KECCAK256 PUSH1 0x1F NOT DUP7 AND SWAP2 JUMPDEST DUP3 DUP2 LT ISZERO PUSH2 0x1661 JUMPI DUP9 DUP7 ADD MLOAD DUP3 SSTORE SWAP5 DUP5 ADD SWAP5 PUSH1 0x1 SWAP1 SWAP2 ADD SWAP1 DUP5 ADD PUSH2 0x1642 JUMP JUMPDEST POP DUP6 DUP3 LT ISZERO PUSH2 0x167F JUMPI DUP8 DUP6 ADD MLOAD PUSH1 0x0 NOT PUSH1 0x3 DUP9 SWAP1 SHL PUSH1 0xF8 AND SHR NOT AND DUP2 SSTORE JUMPDEST POP POP POP POP POP PUSH1 0x1 SWAP1 DUP2 SHL ADD SWAP1 SSTORE POP JUMP JUMPDEST PUSH1 0x0 PUSH1 0x1 DUP3 ADD PUSH2 0x16AF JUMPI PUSH4 0x4E487B71 PUSH1 0xE0 SHL PUSH1 0x0 MSTORE PUSH1 0x11 PUSH1 0x4 MSTORE PUSH1 0x24 PUSH1 0x0 REVERT JUMPDEST POP PUSH1 0x1 ADD SWAP1 JUMP JUMPDEST PUSH1 0x80 DUP2 MSTORE PUSH1 0x0 PUSH2 0x16C9 PUSH1 0x80 DUP4 ADD DUP8 PUSH2 0x124E JUMP JUMPDEST DUP3 DUP2 SUB PUSH1 0x20 DUP5 ADD MSTORE PUSH2 0x16DB DUP2 DUP8 PUSH2 0x124E JUMP JUMPDEST SWAP1 POP DUP3 DUP2 SUB PUSH1 0x40 DUP5 ADD MSTORE PUSH2 0x16EF DUP2 DUP7 PUSH2 0x124E JUMP JUMPDEST SWAP2 POP POP DUP3 PUSH1 0x60 DUP4 ADD MSTORE SWAP6 SWAP5 POP POP POP POP POP JUMP JUMPDEST PUSH1 0x20 DUP2 MSTORE PUSH1 0x0 PUSH2 0x1223 PUSH1 0x20 DUP4 ADD DUP5 PUSH2 0x124E JUMP INVALID LOG2 PUSH5 0x6970667358 0x22 SLT KECCAK256 0x23 MULMOD SWAP13 LT 0x4E KECCAK256 JUMPDEST 0x1F CALL EXTCODESIZE ORIGIN 0x2D 0x2A SIGNEXTEND LOG2 MSIZE 0x2A 0xA9 CALLER MSTORE8 0x49 SWAP12 NUMBER SWAP2 0xB7 BLOCKHASH SWAP4 CODECOPY 0xC8 SWAP16 0x4F 0xC4 PUSH5 0x736F6C6343 STOP ADDMOD EQ STOP CALLER "},"methodIdentifiers":{"authorizeInstitution(address,string)":"f9e331eb","certificateIdExists(string)":"8871d9e8","getStudentCertificates(string)":"ade3de2c","isInstitutionAuthorized(address)":"771a7fd8","issueCertificate(string,string,string,string,string,string)":"94973c97","owner()":"8da5cb5b","revokeCertificate(string)":"142e1542","revokeInstitution(address)":"1c67494e","totalCertificates()":"596b772f","verifyCertificate(string)":"8b23d875"}}}}}